{
  "_format": "hh-sol-artifact-1",
  "contractName": "DAO",
  "sourceName": "contracts/DAO.sol",
  "abi": [
    {
      "inputs": [
        {
          "internalType": "contract Token",
          "name": "_tokenContract",
          "type": "address"
        }
      ],
      "stateMutability": "nonpayable",
      "type": "constructor"
    },
    {
      "anonymous": false,
      "inputs": [
        {
          "indexed": false,
          "internalType": "string",
          "name": "message",
          "type": "string"
        }
      ],
      "name": "JoiningReqEvent",
      "type": "event"
    },
    {
      "anonymous": false,
      "inputs": [
        {
          "indexed": false,
          "internalType": "string",
          "name": "message",
          "type": "string"
        }
      ],
      "name": "MembersUpdated",
      "type": "event"
    },
    {
      "anonymous": false,
      "inputs": [
        {
          "indexed": false,
          "internalType": "uint256",
          "name": "proposalId",
          "type": "uint256"
        },
        {
          "indexed": false,
          "internalType": "string",
          "name": "message",
          "type": "string"
        },
        {
          "indexed": false,
          "internalType": "address",
          "name": "proposer",
          "type": "address"
        }
      ],
      "name": "ProposalCreatedEvent",
      "type": "event"
    },
    {
      "anonymous": false,
      "inputs": [
        {
          "indexed": false,
          "internalType": "uint256",
          "name": "proposalId",
          "type": "uint256"
        }
      ],
      "name": "ProposalPassed",
      "type": "event"
    },
    {
      "anonymous": false,
      "inputs": [
        {
          "indexed": false,
          "internalType": "string",
          "name": "message",
          "type": "string"
        }
      ],
      "name": "TokenUpdated",
      "type": "event"
    },
    {
      "anonymous": false,
      "inputs": [
        {
          "indexed": false,
          "internalType": "uint256",
          "name": "proposalId",
          "type": "uint256"
        },
        {
          "indexed": false,
          "internalType": "address",
          "name": "voter",
          "type": "address"
        }
      ],
      "name": "Voted",
      "type": "event"
    },
    {
      "inputs": [
        {
          "internalType": "uint256",
          "name": "",
          "type": "uint256"
        }
      ],
      "name": "acceptedProporsalsIds",
      "outputs": [
        {
          "internalType": "uint256",
          "name": "",
          "type": "uint256"
        }
      ],
      "stateMutability": "view",
      "type": "function"
    },
    {
      "inputs": [],
      "name": "acceptedProporsalsIdsCount",
      "outputs": [
        {
          "internalType": "uint256",
          "name": "",
          "type": "uint256"
        }
      ],
      "stateMutability": "view",
      "type": "function"
    },
    {
      "inputs": [
        {
          "internalType": "string",
          "name": "_message",
          "type": "string"
        }
      ],
      "name": "addJoinRequest",
      "outputs": [],
      "stateMutability": "nonpayable",
      "type": "function"
    },
    {
      "inputs": [
        {
          "internalType": "address",
          "name": "_member",
          "type": "address"
        }
      ],
      "name": "addMember",
      "outputs": [],
      "stateMutability": "nonpayable",
      "type": "function"
    },
    {
      "inputs": [],
      "name": "joinRequestCount",
      "outputs": [
        {
          "internalType": "uint256",
          "name": "",
          "type": "uint256"
        }
      ],
      "stateMutability": "view",
      "type": "function"
    },
    {
      "inputs": [
        {
          "internalType": "address",
          "name": "",
          "type": "address"
        }
      ],
      "name": "joinRequestString",
      "outputs": [
        {
          "internalType": "string",
          "name": "",
          "type": "string"
        }
      ],
      "stateMutability": "view",
      "type": "function"
    },
    {
      "inputs": [
        {
          "internalType": "uint256",
          "name": "",
          "type": "uint256"
        }
      ],
      "name": "joinRequests",
      "outputs": [
        {
          "internalType": "address",
          "name": "",
          "type": "address"
        }
      ],
      "stateMutability": "view",
      "type": "function"
    },
    {
      "inputs": [
        {
          "internalType": "address",
          "name": "",
          "type": "address"
        }
      ],
      "name": "lastIdeaPosted",
      "outputs": [
        {
          "internalType": "uint256",
          "name": "",
          "type": "uint256"
        }
      ],
      "stateMutability": "view",
      "type": "function"
    },
    {
      "inputs": [
        {
          "internalType": "address",
          "name": "",
          "type": "address"
        }
      ],
      "name": "lastRewardDistribTime",
      "outputs": [
        {
          "internalType": "uint256",
          "name": "",
          "type": "uint256"
        }
      ],
      "stateMutability": "view",
      "type": "function"
    },
    {
      "inputs": [],
      "name": "memberCount",
      "outputs": [
        {
          "internalType": "uint256",
          "name": "",
          "type": "uint256"
        }
      ],
      "stateMutability": "view",
      "type": "function"
    },
    {
      "inputs": [
        {
          "internalType": "address",
          "name": "",
          "type": "address"
        }
      ],
      "name": "members",
      "outputs": [
        {
          "internalType": "bool",
          "name": "",
          "type": "bool"
        }
      ],
      "stateMutability": "view",
      "type": "function"
    },
    {
      "inputs": [],
      "name": "owner",
      "outputs": [
        {
          "internalType": "address",
          "name": "",
          "type": "address"
        }
      ],
      "stateMutability": "view",
      "type": "function"
    },
    {
      "inputs": [],
      "name": "proposalCount",
      "outputs": [
        {
          "internalType": "uint256",
          "name": "",
          "type": "uint256"
        }
      ],
      "stateMutability": "view",
      "type": "function"
    },
    {
      "inputs": [
        {
          "internalType": "uint256",
          "name": "",
          "type": "uint256"
        }
      ],
      "name": "proposals",
      "outputs": [
        {
          "internalType": "uint256",
          "name": "id",
          "type": "uint256"
        },
        {
          "internalType": "string",
          "name": "message",
          "type": "string"
        },
        {
          "internalType": "address",
          "name": "proposer",
          "type": "address"
        },
        {
          "internalType": "uint256",
          "name": "voteCount",
          "type": "uint256"
        },
        {
          "internalType": "bool",
          "name": "posted",
          "type": "bool"
        }
      ],
      "stateMutability": "view",
      "type": "function"
    },
    {
      "inputs": [
        {
          "internalType": "string",
          "name": "_message",
          "type": "string"
        }
      ],
      "name": "proposeMessage",
      "outputs": [],
      "stateMutability": "nonpayable",
      "type": "function"
    },
    {
      "inputs": [],
      "name": "provideStayingReward",
      "outputs": [],
      "stateMutability": "nonpayable",
      "type": "function"
    },
    {
      "inputs": [
        {
          "internalType": "address",
          "name": "_member",
          "type": "address"
        }
      ],
      "name": "removeMember",
      "outputs": [],
      "stateMutability": "nonpayable",
      "type": "function"
    },
    {
      "inputs": [
        {
          "internalType": "address",
          "name": "add",
          "type": "address"
        }
      ],
      "name": "returnBalance",
      "outputs": [
        {
          "internalType": "uint256",
          "name": "",
          "type": "uint256"
        }
      ],
      "stateMutability": "view",
      "type": "function"
    },
    {
      "inputs": [],
      "name": "slashingLazyPenality",
      "outputs": [],
      "stateMutability": "nonpayable",
      "type": "function"
    },
    {
      "inputs": [],
      "name": "tokenContract",
      "outputs": [
        {
          "internalType": "contract Token",
          "name": "",
          "type": "address"
        }
      ],
      "stateMutability": "view",
      "type": "function"
    },
    {
      "inputs": [],
      "name": "updateUserBalance",
      "outputs": [],
      "stateMutability": "nonpayable",
      "type": "function"
    },
    {
      "inputs": [
        {
          "internalType": "uint256",
          "name": "_proposalId",
          "type": "uint256"
        }
      ],
      "name": "vote",
      "outputs": [],
      "stateMutability": "nonpayable",
      "type": "function"
    },
    {
      "inputs": [
        {
          "internalType": "address",
          "name": "voter",
          "type": "address"
        },
        {
          "internalType": "uint256",
          "name": "proposalId",
          "type": "uint256"
        }
      ],
      "name": "votePrize",
      "outputs": [
        {
          "internalType": "uint256",
          "name": "",
          "type": "uint256"
        }
      ],
      "stateMutability": "view",
      "type": "function"
    }
  ],
  "bytecode": "0x60806040523480156200001157600080fd5b506040516200303d3803806200303d83398181016040528101906200003791906200023d565b336000806101000a81548173ffffffffffffffffffffffffffffffffffffffff021916908373ffffffffffffffffffffffffffffffffffffffff16021790555080600560006101000a81548173ffffffffffffffffffffffffffffffffffffffff021916908373ffffffffffffffffffffffffffffffffffffffff1602179055506001600960003373ffffffffffffffffffffffffffffffffffffffff1673ffffffffffffffffffffffffffffffffffffffff16815260200190815260200160002060006101000a81548160ff02191690831515021790555042600a60003373ffffffffffffffffffffffffffffffffffffffff1673ffffffffffffffffffffffffffffffffffffffff16815260200190815260200160002081905550600160028190555042600b60003373ffffffffffffffffffffffffffffffffffffffff1673ffffffffffffffffffffffffffffffffffffffff16815260200190815260200160002081905550600060018190555060006004819055506000600381905550506200026f565b600080fd5b600073ffffffffffffffffffffffffffffffffffffffff82169050919050565b6000620001f182620001c4565b9050919050565b60006200020582620001e4565b9050919050565b6200021781620001f8565b81146200022357600080fd5b50565b60008151905062000237816200020c565b92915050565b600060208284031215620002565762000255620001bf565b5b6000620002668482850162000226565b91505092915050565b612dbe806200027f6000396000f3fe608060405234801561001057600080fd5b506004361061014d5760003560e01c806368485f49116100c3578063a36f377f1161007c578063a36f377f146103a2578063bac23044146103c0578063ca6d56dc146103f0578063da35c6641461040c578063ed885b651461042a578063f9a8286f146104345761014d565b806368485f49146102e2578063693211af14610312578063732dd2931461032e5780637fc10205146103385780638780069a146103545780638da5cb5b146103845761014d565b8063264b2b8e11610115578063264b2b8e1461020c5780632b0234571461023c578063357e39d31461024657806355a373d61461026457806363df770014610282578063679ba54b146102b25761014d565b80630121b93f14610152578063013cf08b1461016e57806308ae4b0c146101a25780630b1ca49a146101d257806311aee380146101ee575b600080fd5b61016c60048036038101906101679190611b22565b610464565b005b61018860048036038101906101839190611b22565b61091d565b604051610199959493929190611c4a565b60405180910390f35b6101bc60048036038101906101b79190611cd0565b610a18565b6040516101c99190611cfd565b60405180910390f35b6101ec60048036038101906101e79190611cd0565b610a38565b005b6101f6610c01565b6040516102039190611d18565b60405180910390f35b61022660048036038101906102219190611cd0565b610c07565b6040516102339190611d18565b60405180910390f35b610244610cac565b005b61024e610ddc565b60405161025b9190611d18565b60405180910390f35b61026c610de2565b6040516102799190611d92565b60405180910390f35b61029c60048036038101906102979190611cd0565b610e08565b6040516102a99190611dad565b60405180910390f35b6102cc60048036038101906102c79190611dcf565b610ea8565b6040516102d99190611d18565b60405180910390f35b6102fc60048036038101906102f79190611cd0565b610fb9565b6040516103099190611d18565b60405180910390f35b61032c60048036038101906103279190611f44565b610fd1565b005b61033661126f565b005b610352600480360381019061034d9190611f44565b611342565b005b61036e60048036038101906103699190611b22565b6114b5565b60405161037b9190611d18565b60405180910390f35b61038c6114d9565b6040516103999190611f8d565b60405180910390f35b6103aa6114fd565b6040516103b79190611d18565b60405180910390f35b6103da60048036038101906103d59190611cd0565b611503565b6040516103e79190611d18565b60405180910390f35b61040a60048036038101906104059190611cd0565b61151b565b005b6104146117b8565b6040516104219190611d18565b60405180910390f35b6104326117be565b005b61044e60048036038101906104499190611b22565b611a99565b60405161045b9190611f8d565b60405180910390f35b600960003373ffffffffffffffffffffffffffffffffffffffff1673ffffffffffffffffffffffffffffffffffffffff16815260200190815260200160002060009054906101000a900460ff166104f0576040517f08c379a00000000000000000000000000000000000000000000000000000000081526004016104e79061201a565b60405180910390fd5b6001548110610534576040517f08c379a000000000000000000000000000000000000000000000000000000000815260040161052b90612086565b60405180910390fd5b600015156006828154811061054c5761054b6120a6565b5b906000526020600020906006020160040160009054906101000a900460ff161515146105ad576040517f08c379a00000000000000000000000000000000000000000000000000000000081526004016105a490612121565b60405180910390fd5b6000600682815481106105c3576105c26120a6565b5b906000526020600020906006020190506000600160028360050160003373ffffffffffffffffffffffffffffffffffffffff1673ffffffffffffffffffffffffffffffffffffffff1681526020019081526020016000205461062591906122b0565b61062f91906122fb565b905080600560009054906101000a900473ffffffffffffffffffffffffffffffffffffffff1673ffffffffffffffffffffffffffffffffffffffff166370a08231336040518263ffffffff1660e01b815260040161068d9190611f8d565b602060405180830381865afa1580156106aa573d6000803e3d6000fd5b505050506040513d601f19601f820116820180604052508101906106ce9190612344565b1161070e576040517f08c379a0000000000000000000000000000000000000000000000000000000008152600401610705906123bd565b60405180910390fd5b600560009054906101000a900473ffffffffffffffffffffffffffffffffffffffff1673ffffffffffffffffffffffffffffffffffffffff16639dc29fac33836040518363ffffffff1660e01b815260040161076b9291906123dd565b600060405180830381600087803b15801561078557600080fd5b505af1158015610799573d6000803e3d6000fd5b505050508160050160003373ffffffffffffffffffffffffffffffffffffffff1673ffffffffffffffffffffffffffffffffffffffff16815260200190815260200160002060008154809291906107ef90612406565b919050555081600301600081548092919061080990612406565b91905055507f030b0f8dcd86a031eddb071f91882edeac8173663ba775713b677b42b51be44b833360405161083f92919061244e565b60405180910390a16002546002836003015461085b9190612477565b1115610918577fe36f8b7448daff4a52e2945db0d1d7a436279cc1d527a45c27835dcbd27f336d836040516108909190611d18565b60405180910390a16001600684815481106108ae576108ad6120a6565b5b906000526020600020906006020160040160006101000a81548160ff02191690831515021790555060078390806001815401808255809150506001900390600052602060002001600090919091909150556003600081548092919061091290612406565b91905055505b505050565b6006818154811061092d57600080fd5b9060005260206000209060060201600091509050806000015490806001018054610956906124e8565b80601f0160208091040260200160405190810160405280929190818152602001828054610982906124e8565b80156109cf5780601f106109a4576101008083540402835291602001916109cf565b820191906000526020600020905b8154815290600101906020018083116109b257829003601f168201915b5050505050908060020160009054906101000a900473ffffffffffffffffffffffffffffffffffffffff16908060030154908060040160009054906101000a900460ff16905085565b60096020528060005260406000206000915054906101000a900460ff1681565b60008054906101000a900473ffffffffffffffffffffffffffffffffffffffff1673ffffffffffffffffffffffffffffffffffffffff163373ffffffffffffffffffffffffffffffffffffffff1614610ac6576040517f08c379a0000000000000000000000000000000000000000000000000000000008152600401610abd9061258b565b60405180910390fd5b60011515600960008373ffffffffffffffffffffffffffffffffffffffff1673ffffffffffffffffffffffffffffffffffffffff16815260200190815260200160002060009054906101000a900460ff16151514610b59576040517f08c379a0000000000000000000000000000000000000000000000000000000008152600401610b50906125f7565b60405180910390fd5b60026000815480929190610b6c90612617565b91905055506000600960008373ffffffffffffffffffffffffffffffffffffffff1673ffffffffffffffffffffffffffffffffffffffff16815260200190815260200160002060006101000a81548160ff0219169083151502179055507ff462d2f4611174a37353ac035be9afe8c0ddfeb2c86755fa679d5acbd4ceaa13604051610bf69061268c565b60405180910390a150565b60025481565b6000600560009054906101000a900473ffffffffffffffffffffffffffffffffffffffff1673ffffffffffffffffffffffffffffffffffffffff16635f515226836040518263ffffffff1660e01b8152600401610c649190611f8d565b602060405180830381865afa158015610c81573d6000803e3d6000fd5b505050506040513d601f19601f82011682018060405250810190610ca59190612344565b9050919050565b6000603c90504281600b60003373ffffffffffffffffffffffffffffffffffffffff1673ffffffffffffffffffffffffffffffffffffffff16815260200190815260200160002054610cfe91906122fb565b1015610dd957600560009054906101000a900473ffffffffffffffffffffffffffffffffffffffff1673ffffffffffffffffffffffffffffffffffffffff166340c10f193360326040518363ffffffff1660e01b8152600401610d629291906126e7565b600060405180830381600087803b158015610d7c57600080fd5b505af1158015610d90573d6000803e3d6000fd5b5050505042600b60003373ffffffffffffffffffffffffffffffffffffffff1673ffffffffffffffffffffffffffffffffffffffff168152602001908152602001600020819055505b50565b60035481565b600560009054906101000a900473ffffffffffffffffffffffffffffffffffffffff1681565b600c6020528060005260406000206000915090508054610e27906124e8565b80601f0160208091040260200160405190810160405280929190818152602001828054610e53906124e8565b8015610ea05780601f10610e7557610100808354040283529160200191610ea0565b820191906000526020600020905b815481529060010190602001808311610e8357829003601f168201915b505050505081565b6000600960003373ffffffffffffffffffffffffffffffffffffffff1673ffffffffffffffffffffffffffffffffffffffff16815260200190815260200160002060009054906101000a900460ff16610f36576040517f08c379a0000000000000000000000000000000000000000000000000000000008152600401610f2d9061201a565b60405180910390fd5b6001600260068481548110610f4e57610f4d6120a6565b5b906000526020600020906006020160050160008673ffffffffffffffffffffffffffffffffffffffff1673ffffffffffffffffffffffffffffffffffffffff16815260200190815260200160002054610fa791906122b0565b610fb191906122fb565b905092915050565b600b6020528060005260406000206000915090505481565b600960003373ffffffffffffffffffffffffffffffffffffffff1673ffffffffffffffffffffffffffffffffffffffff16815260200190815260200160002060009054906101000a900460ff1661105d576040517f08c379a00000000000000000000000000000000000000000000000000000000081526004016110549061201a565b60405180910390fd5b60008151116110a1576040517f08c379a00000000000000000000000000000000000000000000000000000000081526004016110989061275c565b60405180910390fd5b6000600160008154809291906110b690612406565b919050559050600060066001816001815401808255809150500390600052602060002090600602019050818160000181905550828160010190816110fa919061291e565b5060008160040160006101000a81548160ff021916908315150217905550338160020160006101000a81548173ffffffffffffffffffffffffffffffffffffffff021916908373ffffffffffffffffffffffffffffffffffffffff16021790555042600a60003373ffffffffffffffffffffffffffffffffffffffff1673ffffffffffffffffffffffffffffffffffffffff16815260200190815260200160002081905550600560009054906101000a900473ffffffffffffffffffffffffffffffffffffffff1673ffffffffffffffffffffffffffffffffffffffff166340c10f193360056040518363ffffffff1660e01b81526004016111fd929190612a2b565b600060405180830381600087803b15801561121757600080fd5b505af115801561122b573d6000803e3d6000fd5b505050507ff1be93d13a9ec6e38c62e3272909f4ed2b4c69ed86229125edad43fea6d1b5f182843360405161126293929190612a54565b60405180910390a1505050565b600960003373ffffffffffffffffffffffffffffffffffffffff1673ffffffffffffffffffffffffffffffffffffffff16815260200190815260200160002060009054906101000a900460ff166112fb576040517f08c379a00000000000000000000000000000000000000000000000000000000081526004016112f29061201a565b60405180910390fd5b611303610cac565b61130b6117be565b7f6714407191569b7b9edd5db2d624b8e2281272e577950f0e87ca156570ffe9e460405161133890612ade565b60405180910390a1565b6040518060200160405280600081525080519060200120600c60003373ffffffffffffffffffffffffffffffffffffffff1673ffffffffffffffffffffffffffffffffffffffff1681526020019081526020016000206040516113a59190612ba1565b60405180910390200361142e57600460008154809291906113c590612406565b91905055506008339080600181540180825580915050600190039060005260206000200160009091909190916101000a81548173ffffffffffffffffffffffffffffffffffffffff021916908373ffffffffffffffffffffffffffffffffffffffff1602179055505b80600c60003373ffffffffffffffffffffffffffffffffffffffff1673ffffffffffffffffffffffffffffffffffffffff168152602001908152602001600020908161147a919061291e565b507f40b81275ca23902f4151d4ec77a4cfffdef11343ecf7242750a733bc29d3f295816040516114aa9190611dad565b60405180910390a150565b600781815481106114c557600080fd5b906000526020600020016000915090505481565b60008054906101000a900473ffffffffffffffffffffffffffffffffffffffff1681565b60045481565b600a6020528060005260406000206000915090505481565b60008054906101000a900473ffffffffffffffffffffffffffffffffffffffff1673ffffffffffffffffffffffffffffffffffffffff163373ffffffffffffffffffffffffffffffffffffffff16146115a9576040517f08c379a00000000000000000000000000000000000000000000000000000000081526004016115a09061258b565b60405180910390fd5b60001515600960008373ffffffffffffffffffffffffffffffffffffffff1673ffffffffffffffffffffffffffffffffffffffff16815260200190815260200160002060009054906101000a900460ff1615151461163c576040517f08c379a000000000000000000000000000000000000000000000000000000000815260040161163390612c04565b60405180910390fd5b6002600081548092919061164f90612406565b91905055506001600960008373ffffffffffffffffffffffffffffffffffffffff1673ffffffffffffffffffffffffffffffffffffffff16815260200190815260200160002060006101000a81548160ff021916908315150217905550600560009054906101000a900473ffffffffffffffffffffffffffffffffffffffff1673ffffffffffffffffffffffffffffffffffffffff166340c10f198260646040518363ffffffff1660e01b815260040161170a929190612c5f565b600060405180830381600087803b15801561172457600080fd5b505af1158015611738573d6000803e3d6000fd5b5050505042600a60008373ffffffffffffffffffffffffffffffffffffffff1673ffffffffffffffffffffffffffffffffffffffff168152602001908152602001600020819055507ff462d2f4611174a37353ac035be9afe8c0ddfeb2c86755fa679d5acbd4ceaa136040516117ad90612cd4565b60405180910390a150565b60015481565b6000607890506000603c90504282600a60003373ffffffffffffffffffffffffffffffffffffffff1673ffffffffffffffffffffffffffffffffffffffff1681526020019081526020016000205461181691906122fb565b1015611a9557600081600a60003373ffffffffffffffffffffffffffffffffffffffff1673ffffffffffffffffffffffffffffffffffffffff168152602001908152602001600020544261186a9190612cf4565b600a6118769190612477565b6118809190612d57565b90506000600560009054906101000a900473ffffffffffffffffffffffffffffffffffffffff1673ffffffffffffffffffffffffffffffffffffffff166370a08231336040518263ffffffff1660e01b81526004016118df9190611f8d565b602060405180830381865afa1580156118fc573d6000803e3d6000fd5b505050506040513d601f19601f820116820180604052508101906119209190612344565b9050818111156119be57600560009054906101000a900473ffffffffffffffffffffffffffffffffffffffff1673ffffffffffffffffffffffffffffffffffffffff16639dc29fac33846040518363ffffffff1660e01b81526004016119879291906123dd565b600060405180830381600087803b1580156119a157600080fd5b505af11580156119b5573d6000803e3d6000fd5b50505050611a4e565b600560009054906101000a900473ffffffffffffffffffffffffffffffffffffffff1673ffffffffffffffffffffffffffffffffffffffff16639dc29fac33836040518363ffffffff1660e01b8152600401611a1b9291906123dd565b600060405180830381600087803b158015611a3557600080fd5b505af1158015611a49573d6000803e3d6000fd5b505050505b42600a60003373ffffffffffffffffffffffffffffffffffffffff1673ffffffffffffffffffffffffffffffffffffffff1681526020019081526020016000208190555050505b5050565b60088181548110611aa957600080fd5b906000526020600020016000915054906101000a900473ffffffffffffffffffffffffffffffffffffffff1681565b6000604051905090565b600080fd5b600080fd5b6000819050919050565b611aff81611aec565b8114611b0a57600080fd5b50565b600081359050611b1c81611af6565b92915050565b600060208284031215611b3857611b37611ae2565b5b6000611b4684828501611b0d565b91505092915050565b611b5881611aec565b82525050565b600081519050919050565b600082825260208201905092915050565b60005b83811015611b98578082015181840152602081019050611b7d565b60008484015250505050565b6000601f19601f8301169050919050565b6000611bc082611b5e565b611bca8185611b69565b9350611bda818560208601611b7a565b611be381611ba4565b840191505092915050565b600073ffffffffffffffffffffffffffffffffffffffff82169050919050565b6000611c1982611bee565b9050919050565b611c2981611c0e565b82525050565b60008115159050919050565b611c4481611c2f565b82525050565b600060a082019050611c5f6000830188611b4f565b8181036020830152611c718187611bb5565b9050611c806040830186611c20565b611c8d6060830185611b4f565b611c9a6080830184611c3b565b9695505050505050565b611cad81611c0e565b8114611cb857600080fd5b50565b600081359050611cca81611ca4565b92915050565b600060208284031215611ce657611ce5611ae2565b5b6000611cf484828501611cbb565b91505092915050565b6000602082019050611d126000830184611c3b565b92915050565b6000602082019050611d2d6000830184611b4f565b92915050565b6000819050919050565b6000611d58611d53611d4e84611bee565b611d33565b611bee565b9050919050565b6000611d6a82611d3d565b9050919050565b6000611d7c82611d5f565b9050919050565b611d8c81611d71565b82525050565b6000602082019050611da76000830184611d83565b92915050565b60006020820190508181036000830152611dc78184611bb5565b905092915050565b60008060408385031215611de657611de5611ae2565b5b6000611df485828601611cbb565b9250506020611e0585828601611b0d565b9150509250929050565b600080fd5b600080fd5b7f4e487b7100000000000000000000000000000000000000000000000000000000600052604160045260246000fd5b611e5182611ba4565b810181811067ffffffffffffffff82111715611e7057611e6f611e19565b5b80604052505050565b6000611e83611ad8565b9050611e8f8282611e48565b919050565b600067ffffffffffffffff821115611eaf57611eae611e19565b5b611eb882611ba4565b9050602081019050919050565b82818337600083830152505050565b6000611ee7611ee284611e94565b611e79565b905082815260208101848484011115611f0357611f02611e14565b5b611f0e848285611ec5565b509392505050565b600082601f830112611f2b57611f2a611e0f565b5b8135611f3b848260208601611ed4565b91505092915050565b600060208284031215611f5a57611f59611ae2565b5b600082013567ffffffffffffffff811115611f7857611f77611ae7565b5b611f8484828501611f16565b91505092915050565b6000602082019050611fa26000830184611c20565b92915050565b7f4f6e6c79206d656d626572732063616e2063616c6c20746869732066756e637460008201527f696f6e0000000000000000000000000000000000000000000000000000000000602082015250565b6000612004602383611b69565b915061200f82611fa8565b604082019050919050565b6000602082019050818103600083015261203381611ff7565b9050919050565b7f496e76616c69642070726f706f73616c20494400000000000000000000000000600082015250565b6000612070601383611b69565b915061207b8261203a565b602082019050919050565b6000602082019050818103600083015261209f81612063565b9050919050565b7f4e487b7100000000000000000000000000000000000000000000000000000000600052603260045260246000fd5b7f50726f706f7273616c20616c726561647920706f737465640000000000000000600082015250565b600061210b601883611b69565b9150612116826120d5565b602082019050919050565b6000602082019050818103600083015261213a816120fe565b9050919050565b7f4e487b7100000000000000000000000000000000000000000000000000000000600052601160045260246000fd5b60008160011c9050919050565b6000808291508390505b60018511156121c7578086048111156121a3576121a2612141565b5b60018516156121b25780820291505b80810290506121c085612170565b9450612187565b94509492505050565b6000826121e0576001905061229c565b816121ee576000905061229c565b8160018114612204576002811461220e5761223d565b600191505061229c565b60ff8411156122205761221f612141565b5b8360020a91508482111561223757612236612141565b5b5061229c565b5060208310610133831016604e8410600b84101617156122725782820a90508381111561226d5761226c612141565b5b61229c565b61227f848484600161217d565b9250905081840481111561229657612295612141565b5b81810290505b9392505050565b600060ff82169050919050565b60006122bb82611aec565b91506122c6836122a3565b92506122f37fffffffffffffffffffffffffffffffffffffffffffffffffffffffffffffffff84846121d0565b905092915050565b600061230682611aec565b915061231183611aec565b925082820190508082111561232957612328612141565b5b92915050565b60008151905061233e81611af6565b92915050565b60006020828403121561235a57612359611ae2565b5b60006123688482850161232f565b91505092915050565b7f4e6f7420456e6f75676820546f6b656e73000000000000000000000000000000600082015250565b60006123a7601183611b69565b91506123b282612371565b602082019050919050565b600060208201905081810360008301526123d68161239a565b9050919050565b60006040820190506123f26000830185611c20565b6123ff6020830184611b4f565b9392505050565b600061241182611aec565b91507fffffffffffffffffffffffffffffffffffffffffffffffffffffffffffffffff820361244357612442612141565b5b600182019050919050565b60006040820190506124636000830185611b4f565b6124706020830184611c20565b9392505050565b600061248282611aec565b915061248d83611aec565b925082820261249b81611aec565b915082820484148315176124b2576124b1612141565b5b5092915050565b7f4e487b7100000000000000000000000000000000000000000000000000000000600052602260045260246000fd5b6000600282049050600182168061250057607f821691505b602082108103612513576125126124b9565b5b50919050565b7f4f6e6c79206f776e65722063616e2063616c6c20746869732066756e6374696f60008201527f6e00000000000000000000000000000000000000000000000000000000000000602082015250565b6000612575602183611b69565b915061258082612519565b604082019050919050565b600060208201905081810360008301526125a481612568565b9050919050565b7f4e6f742061204d656d62657220616e7977617900000000000000000000000000600082015250565b60006125e1601383611b69565b91506125ec826125ab565b602082019050919050565b60006020820190508181036000830152612610816125d4565b9050919050565b600061262282611aec565b91506000820361263557612634612141565b5b600182039050919050565b7f4d656d6265722052656d6f766564000000000000000000000000000000000000600082015250565b6000612676600e83611b69565b915061268182612640565b602082019050919050565b600060208201905081810360008301526126a581612669565b9050919050565b6000819050919050565b60006126d16126cc6126c7846126ac565b611d33565b611aec565b9050919050565b6126e1816126b6565b82525050565b60006040820190506126fc6000830185611c20565b61270960208301846126d8565b9392505050565b7f4d6573736167652063616e6e6f7420626520656d707479000000000000000000600082015250565b6000612746601783611b69565b915061275182612710565b602082019050919050565b6000602082019050818103600083015261277581612739565b9050919050565b60008190508160005260206000209050919050565b60006020601f8301049050919050565b600082821b905092915050565b6000600883026127de7fffffffffffffffffffffffffffffffffffffffffffffffffffffffffffffffff826127a1565b6127e886836127a1565b95508019841693508086168417925050509392505050565b600061281b61281661281184611aec565b611d33565b611aec565b9050919050565b6000819050919050565b61283583612800565b61284961284182612822565b8484546127ae565b825550505050565b600090565b61285e612851565b61286981848461282c565b505050565b5b8181101561288d57612882600082612856565b60018101905061286f565b5050565b601f8211156128d2576128a38161277c565b6128ac84612791565b810160208510156128bb578190505b6128cf6128c785612791565b83018261286e565b50505b505050565b600082821c905092915050565b60006128f5600019846008026128d7565b1980831691505092915050565b600061290e83836128e4565b9150826002028217905092915050565b61292782611b5e565b67ffffffffffffffff8111156129405761293f611e19565b5b61294a82546124e8565b612955828285612891565b600060209050601f8311600181146129885760008415612976578287015190505b6129808582612902565b8655506129e8565b601f1984166129968661277c565b60005b828110156129be57848901518255600182019150602085019450602081019050612999565b868310156129db57848901516129d7601f8916826128e4565b8355505b6001600288020188555050505b505050505050565b6000819050919050565b6000612a15612a10612a0b846129f0565b611d33565b611aec565b9050919050565b612a25816129fa565b82525050565b6000604082019050612a406000830185611c20565b612a4d6020830184612a1c565b9392505050565b6000606082019050612a696000830186611b4f565b8181036020830152612a7b8185611bb5565b9050612a8a6040830184611c20565b949350505050565b7f546f6b656e732068617665206265656e20557064617465640000000000000000600082015250565b6000612ac8601883611b69565b9150612ad382612a92565b602082019050919050565b60006020820190508181036000830152612af781612abb565b9050919050565b600081905092915050565b60008190508160005260206000209050919050565b60008154612b2b816124e8565b612b358186612afe565b94506001821660008114612b505760018114612b6557612b98565b60ff1983168652811515820286019350612b98565b612b6e85612b09565b60005b83811015612b9057815481890152600182019150602081019050612b71565b838801955050505b50505092915050565b6000612bad8284612b1e565b915081905092915050565b7f416c72656164792061204d656d62657200000000000000000000000000000000600082015250565b6000612bee601083611b69565b9150612bf982612bb8565b602082019050919050565b60006020820190508181036000830152612c1d81612be1565b9050919050565b6000819050919050565b6000612c49612c44612c3f84612c24565b611d33565b611aec565b9050919050565b612c5981612c2e565b82525050565b6000604082019050612c746000830185611c20565b612c816020830184612c50565b9392505050565b7f4d656d6265722041646465640000000000000000000000000000000000000000600082015250565b6000612cbe600c83611b69565b9150612cc982612c88565b602082019050919050565b60006020820190508181036000830152612ced81612cb1565b9050919050565b6000612cff82611aec565b9150612d0a83611aec565b9250828203905081811115612d2257612d21612141565b5b92915050565b7f4e487b7100000000000000000000000000000000000000000000000000000000600052601260045260246000fd5b6000612d6282611aec565b9150612d6d83611aec565b925082612d7d57612d7c612d28565b5b82820490509291505056fea26469706673582212200177e12a0d676053940bdca7a4c89ceff1df583d2d15c988ac1e5954986d862964736f6c63430008140033",
  "linkReferences": {},
  "deployedLinkReferences": {}
}