{
  "_format": "hh-sol-artifact-1",
  "contractName": "DAO",
  "sourceName": "contracts/DAO.sol",
  "abi": [
    {
      "inputs": [],
      "stateMutability": "nonpayable",
      "type": "constructor"
    },
    {
      "anonymous": false,
      "inputs": [
        {
          "indexed": false,
          "internalType": "string",
          "name": "message",
          "type": "string"
        }
      ],
      "name": "JoiningReqEvent",
      "type": "event"
    },
    {
      "anonymous": false,
      "inputs": [
        {
          "indexed": false,
          "internalType": "string",
          "name": "message",
          "type": "string"
        }
      ],
      "name": "MembersUpdated",
      "type": "event"
    },
    {
      "anonymous": false,
      "inputs": [
        {
          "indexed": false,
          "internalType": "uint256",
          "name": "proposalId",
          "type": "uint256"
        },
        {
          "indexed": false,
          "internalType": "string",
          "name": "message",
          "type": "string"
        },
        {
          "indexed": false,
          "internalType": "address",
          "name": "proposer",
          "type": "address"
        }
      ],
      "name": "ProposalCreatedEvent",
      "type": "event"
    },
    {
      "anonymous": false,
      "inputs": [
        {
          "indexed": false,
          "internalType": "uint256",
          "name": "proposalId",
          "type": "uint256"
        }
      ],
      "name": "ProposalPassed",
      "type": "event"
    },
    {
      "anonymous": false,
      "inputs": [
        {
          "indexed": false,
          "internalType": "string",
          "name": "message",
          "type": "string"
        }
      ],
      "name": "TokenUpdated",
      "type": "event"
    },
    {
      "anonymous": false,
      "inputs": [
        {
          "indexed": false,
          "internalType": "uint256",
          "name": "proposalId",
          "type": "uint256"
        },
        {
          "indexed": false,
          "internalType": "address",
          "name": "voter",
          "type": "address"
        }
      ],
      "name": "Voted",
      "type": "event"
    },
    {
      "inputs": [
        {
          "internalType": "uint256",
          "name": "",
          "type": "uint256"
        }
      ],
      "name": "acceptedProporsalsIds",
      "outputs": [
        {
          "internalType": "uint256",
          "name": "",
          "type": "uint256"
        }
      ],
      "stateMutability": "view",
      "type": "function"
    },
    {
      "inputs": [],
      "name": "acceptedProporsalsIdsCount",
      "outputs": [
        {
          "internalType": "uint256",
          "name": "",
          "type": "uint256"
        }
      ],
      "stateMutability": "view",
      "type": "function"
    },
    {
      "inputs": [
        {
          "internalType": "string",
          "name": "_message",
          "type": "string"
        }
      ],
      "name": "addJoinRequest",
      "outputs": [],
      "stateMutability": "nonpayable",
      "type": "function"
    },
    {
      "inputs": [
        {
          "internalType": "address",
          "name": "_member",
          "type": "address"
        }
      ],
      "name": "addMember",
      "outputs": [],
      "stateMutability": "nonpayable",
      "type": "function"
    },
    {
      "inputs": [
        {
          "internalType": "address",
          "name": "",
          "type": "address"
        }
      ],
      "name": "balance",
      "outputs": [
        {
          "internalType": "uint256",
          "name": "",
          "type": "uint256"
        }
      ],
      "stateMutability": "view",
      "type": "function"
    },
    {
      "inputs": [],
      "name": "joinRequestCount",
      "outputs": [
        {
          "internalType": "uint256",
          "name": "",
          "type": "uint256"
        }
      ],
      "stateMutability": "view",
      "type": "function"
    },
    {
      "inputs": [
        {
          "internalType": "address",
          "name": "",
          "type": "address"
        }
      ],
      "name": "joinRequestString",
      "outputs": [
        {
          "internalType": "string",
          "name": "",
          "type": "string"
        }
      ],
      "stateMutability": "view",
      "type": "function"
    },
    {
      "inputs": [
        {
          "internalType": "uint256",
          "name": "",
          "type": "uint256"
        }
      ],
      "name": "joinRequests",
      "outputs": [
        {
          "internalType": "address",
          "name": "",
          "type": "address"
        }
      ],
      "stateMutability": "view",
      "type": "function"
    },
    {
      "inputs": [
        {
          "internalType": "address",
          "name": "",
          "type": "address"
        }
      ],
      "name": "lastIdeaPosted",
      "outputs": [
        {
          "internalType": "uint256",
          "name": "",
          "type": "uint256"
        }
      ],
      "stateMutability": "view",
      "type": "function"
    },
    {
      "inputs": [
        {
          "internalType": "address",
          "name": "",
          "type": "address"
        }
      ],
      "name": "lastRewardDistribTime",
      "outputs": [
        {
          "internalType": "uint256",
          "name": "",
          "type": "uint256"
        }
      ],
      "stateMutability": "view",
      "type": "function"
    },
    {
      "inputs": [],
      "name": "memberCount",
      "outputs": [
        {
          "internalType": "uint256",
          "name": "",
          "type": "uint256"
        }
      ],
      "stateMutability": "view",
      "type": "function"
    },
    {
      "inputs": [
        {
          "internalType": "address",
          "name": "",
          "type": "address"
        }
      ],
      "name": "members",
      "outputs": [
        {
          "internalType": "bool",
          "name": "",
          "type": "bool"
        }
      ],
      "stateMutability": "view",
      "type": "function"
    },
    {
      "inputs": [],
      "name": "owner",
      "outputs": [
        {
          "internalType": "address",
          "name": "",
          "type": "address"
        }
      ],
      "stateMutability": "view",
      "type": "function"
    },
    {
      "inputs": [],
      "name": "proposalCount",
      "outputs": [
        {
          "internalType": "uint256",
          "name": "",
          "type": "uint256"
        }
      ],
      "stateMutability": "view",
      "type": "function"
    },
    {
      "inputs": [
        {
          "internalType": "uint256",
          "name": "",
          "type": "uint256"
        }
      ],
      "name": "proposals",
      "outputs": [
        {
          "internalType": "uint256",
          "name": "id",
          "type": "uint256"
        },
        {
          "internalType": "string",
          "name": "message",
          "type": "string"
        },
        {
          "internalType": "address",
          "name": "proposer",
          "type": "address"
        },
        {
          "internalType": "uint256",
          "name": "voteCount",
          "type": "uint256"
        },
        {
          "internalType": "bool",
          "name": "posted",
          "type": "bool"
        }
      ],
      "stateMutability": "view",
      "type": "function"
    },
    {
      "inputs": [
        {
          "internalType": "string",
          "name": "_message",
          "type": "string"
        }
      ],
      "name": "proposeMessage",
      "outputs": [],
      "stateMutability": "nonpayable",
      "type": "function"
    },
    {
      "inputs": [],
      "name": "provideStayingReward",
      "outputs": [],
      "stateMutability": "nonpayable",
      "type": "function"
    },
    {
      "inputs": [
        {
          "internalType": "address",
          "name": "_member",
          "type": "address"
        }
      ],
      "name": "removeMember",
      "outputs": [],
      "stateMutability": "nonpayable",
      "type": "function"
    },
    {
      "inputs": [],
      "name": "slashingLazyPenality",
      "outputs": [],
      "stateMutability": "nonpayable",
      "type": "function"
    },
    {
      "inputs": [],
      "name": "updateUserBalance",
      "outputs": [],
      "stateMutability": "nonpayable",
      "type": "function"
    },
    {
      "inputs": [
        {
          "internalType": "uint256",
          "name": "_proposalId",
          "type": "uint256"
        }
      ],
      "name": "vote",
      "outputs": [],
      "stateMutability": "nonpayable",
      "type": "function"
    },
    {
      "inputs": [
        {
          "internalType": "address",
          "name": "voter",
          "type": "address"
        },
        {
          "internalType": "uint256",
          "name": "proposalId",
          "type": "uint256"
        }
      ],
      "name": "votePrize",
      "outputs": [
        {
          "internalType": "uint256",
          "name": "",
          "type": "uint256"
        }
      ],
      "stateMutability": "view",
      "type": "function"
    }
  ],
  "bytecode": "0x608060405234801561001057600080fd5b50336000806101000a81548173ffffffffffffffffffffffffffffffffffffffff021916908373ffffffffffffffffffffffffffffffffffffffff1602179055506001600860003373ffffffffffffffffffffffffffffffffffffffff1673ffffffffffffffffffffffffffffffffffffffff16815260200190815260200160002060006101000a81548160ff0219169083151502179055506103e8600a60003373ffffffffffffffffffffffffffffffffffffffff1673ffffffffffffffffffffffffffffffffffffffff1681526020019081526020016000208190555042600960003373ffffffffffffffffffffffffffffffffffffffff1673ffffffffffffffffffffffffffffffffffffffff16815260200190815260200160002081905550600160028190555042600b60003373ffffffffffffffffffffffffffffffffffffffff1673ffffffffffffffffffffffffffffffffffffffff168152602001908152602001600020819055506000600181905550600060048190555060006003819055506128a4806101a66000396000f3fe608060405234801561001057600080fd5b50600436106101425760003560e01c8063732dd293116100b8578063bac230441161007c578063bac2304414610367578063ca6d56dc14610397578063da35c664146103b3578063e3d670d7146103d1578063ed885b6514610401578063f9a8286f1461040b57610142565b8063732dd293146102d55780637fc10205146102df5780638780069a146102fb5780638da5cb5b1461032b578063a36f377f1461034957610142565b80632b0234571161010a5780632b02345714610201578063357e39d31461020b57806363df770014610229578063679ba54b1461025957806368485f4914610289578063693211af146102b957610142565b80630121b93f14610147578063013cf08b1461016357806308ae4b0c146101975780630b1ca49a146101c757806311aee380146101e3575b600080fd5b610161600480360381019061015c919061180f565b61043b565b005b61017d6004803603810190610178919061180f565b61085f565b60405161018e959493929190611937565b60405180910390f35b6101b160048036038101906101ac91906119bd565b61095a565b6040516101be91906119ea565b60405180910390f35b6101e160048036038101906101dc91906119bd565b61097a565b005b6101eb610b43565b6040516101f89190611a05565b60405180910390f35b610209610b49565b005b610213610c40565b6040516102209190611a05565b60405180910390f35b610243600480360381019061023e91906119bd565b610c46565b6040516102509190611a20565b60405180910390f35b610273600480360381019061026e9190611a42565b610ce6565b6040516102809190611a05565b60405180910390f35b6102a3600480360381019061029e91906119bd565b610df7565b6040516102b09190611a05565b60405180910390f35b6102d360048036038101906102ce9190611bb7565b610e0f565b005b6102dd611074565b005b6102f960048036038101906102f49190611bb7565b611147565b005b6103156004803603810190610310919061180f565b6112ba565b6040516103229190611a05565b60405180910390f35b6103336112de565b6040516103409190611c00565b60405180910390f35b610351611302565b60405161035e9190611a05565b60405180910390f35b610381600480360381019061037c91906119bd565b611308565b60405161038e9190611a05565b60405180910390f35b6103b160048036038101906103ac91906119bd565b611320565b005b6103bb611572565b6040516103c89190611a05565b60405180910390f35b6103eb60048036038101906103e691906119bd565b611578565b6040516103f89190611a05565b60405180910390f35b610409611590565b005b6104256004803603810190610420919061180f565b611786565b6040516104329190611c00565b60405180910390f35b600860003373ffffffffffffffffffffffffffffffffffffffff1673ffffffffffffffffffffffffffffffffffffffff16815260200190815260200160002060009054906101000a900460ff166104c7576040517f08c379a00000000000000000000000000000000000000000000000000000000081526004016104be90611c8d565b60405180910390fd5b600154811061050b576040517f08c379a000000000000000000000000000000000000000000000000000000000815260040161050290611cf9565b60405180910390fd5b600015156005828154811061052357610522611d19565b5b906000526020600020906006020160040160009054906101000a900460ff16151514610584576040517f08c379a000000000000000000000000000000000000000000000000000000000815260040161057b90611d94565b60405180910390fd5b60006005828154811061059a57610599611d19565b5b906000526020600020906006020190506000600160028360050160003373ffffffffffffffffffffffffffffffffffffffff1673ffffffffffffffffffffffffffffffffffffffff168152602001908152602001600020546105fc9190611f23565b6106069190611f6e565b905080600a60003373ffffffffffffffffffffffffffffffffffffffff1673ffffffffffffffffffffffffffffffffffffffff1681526020019081526020016000205411610689576040517f08c379a000000000000000000000000000000000000000000000000000000000815260040161068090611fee565b60405180910390fd5b80600a60003373ffffffffffffffffffffffffffffffffffffffff1673ffffffffffffffffffffffffffffffffffffffff16815260200190815260200160002060008282546106d8919061200e565b925050819055508160050160003373ffffffffffffffffffffffffffffffffffffffff1673ffffffffffffffffffffffffffffffffffffffff168152602001908152602001600020600081548092919061073190612042565b919050555081600301600081548092919061074b90612042565b91905055507f030b0f8dcd86a031eddb071f91882edeac8173663ba775713b677b42b51be44b833360405161078192919061208a565b60405180910390a16002546002836003015461079d91906120b3565b111561085a577fe36f8b7448daff4a52e2945db0d1d7a436279cc1d527a45c27835dcbd27f336d836040516107d29190611a05565b60405180910390a16001600584815481106107f0576107ef611d19565b5b906000526020600020906006020160040160006101000a81548160ff02191690831515021790555060068390806001815401808255809150506001900390600052602060002001600090919091909150556003600081548092919061085490612042565b91905055505b505050565b6005818154811061086f57600080fd5b906000526020600020906006020160009150905080600001549080600101805461089890612124565b80601f01602080910402602001604051908101604052809291908181526020018280546108c490612124565b80156109115780601f106108e657610100808354040283529160200191610911565b820191906000526020600020905b8154815290600101906020018083116108f457829003601f168201915b5050505050908060020160009054906101000a900473ffffffffffffffffffffffffffffffffffffffff16908060030154908060040160009054906101000a900460ff16905085565b60086020528060005260406000206000915054906101000a900460ff1681565b60008054906101000a900473ffffffffffffffffffffffffffffffffffffffff1673ffffffffffffffffffffffffffffffffffffffff163373ffffffffffffffffffffffffffffffffffffffff1614610a08576040517f08c379a00000000000000000000000000000000000000000000000000000000081526004016109ff906121c7565b60405180910390fd5b60011515600860008373ffffffffffffffffffffffffffffffffffffffff1673ffffffffffffffffffffffffffffffffffffffff16815260200190815260200160002060009054906101000a900460ff16151514610a9b576040517f08c379a0000000000000000000000000000000000000000000000000000000008152600401610a9290612233565b60405180910390fd5b60026000815480929190610aae90612253565b91905055506000600860008373ffffffffffffffffffffffffffffffffffffffff1673ffffffffffffffffffffffffffffffffffffffff16815260200190815260200160002060006101000a81548160ff0219169083151502179055507ff462d2f4611174a37353ac035be9afe8c0ddfeb2c86755fa679d5acbd4ceaa13604051610b38906122c8565b60405180910390a150565b60025481565b6000603c90504281600b60003373ffffffffffffffffffffffffffffffffffffffff1673ffffffffffffffffffffffffffffffffffffffff16815260200190815260200160002054610b9b9190611f6e565b1015610c3d576032600a60003373ffffffffffffffffffffffffffffffffffffffff1673ffffffffffffffffffffffffffffffffffffffff1681526020019081526020016000206000828254610bf19190611f6e565b9250508190555042600b60003373ffffffffffffffffffffffffffffffffffffffff1673ffffffffffffffffffffffffffffffffffffffff168152602001908152602001600020819055505b50565b60035481565b600c6020528060005260406000206000915090508054610c6590612124565b80601f0160208091040260200160405190810160405280929190818152602001828054610c9190612124565b8015610cde5780601f10610cb357610100808354040283529160200191610cde565b820191906000526020600020905b815481529060010190602001808311610cc157829003601f168201915b505050505081565b6000600860003373ffffffffffffffffffffffffffffffffffffffff1673ffffffffffffffffffffffffffffffffffffffff16815260200190815260200160002060009054906101000a900460ff16610d74576040517f08c379a0000000000000000000000000000000000000000000000000000000008152600401610d6b90611c8d565b60405180910390fd5b6001600260058481548110610d8c57610d8b611d19565b5b906000526020600020906006020160050160008673ffffffffffffffffffffffffffffffffffffffff1673ffffffffffffffffffffffffffffffffffffffff16815260200190815260200160002054610de59190611f23565b610def9190611f6e565b905092915050565b600b6020528060005260406000206000915090505481565b600860003373ffffffffffffffffffffffffffffffffffffffff1673ffffffffffffffffffffffffffffffffffffffff16815260200190815260200160002060009054906101000a900460ff16610e9b576040517f08c379a0000000000000000000000000000000000000000000000000000000008152600401610e9290611c8d565b60405180910390fd5b6000815111610edf576040517f08c379a0000000000000000000000000000000000000000000000000000000008152600401610ed690612334565b60405180910390fd5b600060016000815480929190610ef490612042565b91905055905060006005600181600181540180825580915050039060005260206000209060060201905081816000018190555082816001019081610f389190612500565b5060008160040160006101000a81548160ff021916908315150217905550338160020160006101000a81548173ffffffffffffffffffffffffffffffffffffffff021916908373ffffffffffffffffffffffffffffffffffffffff16021790555042600960003373ffffffffffffffffffffffffffffffffffffffff1673ffffffffffffffffffffffffffffffffffffffff168152602001908152602001600020819055506005600a60003373ffffffffffffffffffffffffffffffffffffffff1673ffffffffffffffffffffffffffffffffffffffff168152602001908152602001600020600082825461102d9190611f6e565b925050819055507ff1be93d13a9ec6e38c62e3272909f4ed2b4c69ed86229125edad43fea6d1b5f1828433604051611067939291906125d2565b60405180910390a1505050565b600860003373ffffffffffffffffffffffffffffffffffffffff1673ffffffffffffffffffffffffffffffffffffffff16815260200190815260200160002060009054906101000a900460ff16611100576040517f08c379a00000000000000000000000000000000000000000000000000000000081526004016110f790611c8d565b60405180910390fd5b611108610b49565b611110611590565b7f6714407191569b7b9edd5db2d624b8e2281272e577950f0e87ca156570ffe9e460405161113d9061265c565b60405180910390a1565b6040518060200160405280600081525080519060200120600c60003373ffffffffffffffffffffffffffffffffffffffff1673ffffffffffffffffffffffffffffffffffffffff1681526020019081526020016000206040516111aa919061271f565b60405180910390200361123357600460008154809291906111ca90612042565b91905055506007339080600181540180825580915050600190039060005260206000200160009091909190916101000a81548173ffffffffffffffffffffffffffffffffffffffff021916908373ffffffffffffffffffffffffffffffffffffffff1602179055505b80600c60003373ffffffffffffffffffffffffffffffffffffffff1673ffffffffffffffffffffffffffffffffffffffff168152602001908152602001600020908161127f9190612500565b507f40b81275ca23902f4151d4ec77a4cfffdef11343ecf7242750a733bc29d3f295816040516112af9190611a20565b60405180910390a150565b600681815481106112ca57600080fd5b906000526020600020016000915090505481565b60008054906101000a900473ffffffffffffffffffffffffffffffffffffffff1681565b60045481565b60096020528060005260406000206000915090505481565b60008054906101000a900473ffffffffffffffffffffffffffffffffffffffff1673ffffffffffffffffffffffffffffffffffffffff163373ffffffffffffffffffffffffffffffffffffffff16146113ae576040517f08c379a00000000000000000000000000000000000000000000000000000000081526004016113a5906121c7565b60405180910390fd5b60001515600860008373ffffffffffffffffffffffffffffffffffffffff1673ffffffffffffffffffffffffffffffffffffffff16815260200190815260200160002060009054906101000a900460ff16151514611441576040517f08c379a000000000000000000000000000000000000000000000000000000000815260040161143890612782565b60405180910390fd5b6002600081548092919061145490612042565b91905055506001600860008373ffffffffffffffffffffffffffffffffffffffff1673ffffffffffffffffffffffffffffffffffffffff16815260200190815260200160002060006101000a81548160ff0219169083151502179055506064600a60008373ffffffffffffffffffffffffffffffffffffffff1673ffffffffffffffffffffffffffffffffffffffff1681526020019081526020016000208190555042600960008373ffffffffffffffffffffffffffffffffffffffff1673ffffffffffffffffffffffffffffffffffffffff168152602001908152602001600020819055507ff462d2f4611174a37353ac035be9afe8c0ddfeb2c86755fa679d5acbd4ceaa13604051611567906127ee565b60405180910390a150565b60015481565b600a6020528060005260406000206000915090505481565b6000607890506000603c90504282600960003373ffffffffffffffffffffffffffffffffffffffff1673ffffffffffffffffffffffffffffffffffffffff168152602001908152602001600020546115e89190611f6e565b101561178257600081600960003373ffffffffffffffffffffffffffffffffffffffff1673ffffffffffffffffffffffffffffffffffffffff168152602001908152602001600020544261163c919061200e565b600a61164891906120b3565b611652919061283d565b905080600a60003373ffffffffffffffffffffffffffffffffffffffff1673ffffffffffffffffffffffffffffffffffffffff1681526020019081526020016000205411156116f65780600a60003373ffffffffffffffffffffffffffffffffffffffff1673ffffffffffffffffffffffffffffffffffffffff16815260200190815260200160002060008282546116ea919061200e565b9250508190555061173c565b6000600a60003373ffffffffffffffffffffffffffffffffffffffff1673ffffffffffffffffffffffffffffffffffffffff168152602001908152602001600020819055505b42600960003373ffffffffffffffffffffffffffffffffffffffff1673ffffffffffffffffffffffffffffffffffffffff16815260200190815260200160002081905550505b5050565b6007818154811061179657600080fd5b906000526020600020016000915054906101000a900473ffffffffffffffffffffffffffffffffffffffff1681565b6000604051905090565b600080fd5b600080fd5b6000819050919050565b6117ec816117d9565b81146117f757600080fd5b50565b600081359050611809816117e3565b92915050565b600060208284031215611825576118246117cf565b5b6000611833848285016117fa565b91505092915050565b611845816117d9565b82525050565b600081519050919050565b600082825260208201905092915050565b60005b8381101561188557808201518184015260208101905061186a565b60008484015250505050565b6000601f19601f8301169050919050565b60006118ad8261184b565b6118b78185611856565b93506118c7818560208601611867565b6118d081611891565b840191505092915050565b600073ffffffffffffffffffffffffffffffffffffffff82169050919050565b6000611906826118db565b9050919050565b611916816118fb565b82525050565b60008115159050919050565b6119318161191c565b82525050565b600060a08201905061194c600083018861183c565b818103602083015261195e81876118a2565b905061196d604083018661190d565b61197a606083018561183c565b6119876080830184611928565b9695505050505050565b61199a816118fb565b81146119a557600080fd5b50565b6000813590506119b781611991565b92915050565b6000602082840312156119d3576119d26117cf565b5b60006119e1848285016119a8565b91505092915050565b60006020820190506119ff6000830184611928565b92915050565b6000602082019050611a1a600083018461183c565b92915050565b60006020820190508181036000830152611a3a81846118a2565b905092915050565b60008060408385031215611a5957611a586117cf565b5b6000611a67858286016119a8565b9250506020611a78858286016117fa565b9150509250929050565b600080fd5b600080fd5b7f4e487b7100000000000000000000000000000000000000000000000000000000600052604160045260246000fd5b611ac482611891565b810181811067ffffffffffffffff82111715611ae357611ae2611a8c565b5b80604052505050565b6000611af66117c5565b9050611b028282611abb565b919050565b600067ffffffffffffffff821115611b2257611b21611a8c565b5b611b2b82611891565b9050602081019050919050565b82818337600083830152505050565b6000611b5a611b5584611b07565b611aec565b905082815260208101848484011115611b7657611b75611a87565b5b611b81848285611b38565b509392505050565b600082601f830112611b9e57611b9d611a82565b5b8135611bae848260208601611b47565b91505092915050565b600060208284031215611bcd57611bcc6117cf565b5b600082013567ffffffffffffffff811115611beb57611bea6117d4565b5b611bf784828501611b89565b91505092915050565b6000602082019050611c15600083018461190d565b92915050565b7f4f6e6c79206d656d626572732063616e2063616c6c20746869732066756e637460008201527f696f6e0000000000000000000000000000000000000000000000000000000000602082015250565b6000611c77602383611856565b9150611c8282611c1b565b604082019050919050565b60006020820190508181036000830152611ca681611c6a565b9050919050565b7f496e76616c69642070726f706f73616c20494400000000000000000000000000600082015250565b6000611ce3601383611856565b9150611cee82611cad565b602082019050919050565b60006020820190508181036000830152611d1281611cd6565b9050919050565b7f4e487b7100000000000000000000000000000000000000000000000000000000600052603260045260246000fd5b7f50726f706f7273616c20616c726561647920706f737465640000000000000000600082015250565b6000611d7e601883611856565b9150611d8982611d48565b602082019050919050565b60006020820190508181036000830152611dad81611d71565b9050919050565b7f4e487b7100000000000000000000000000000000000000000000000000000000600052601160045260246000fd5b60008160011c9050919050565b6000808291508390505b6001851115611e3a57808604811115611e1657611e15611db4565b5b6001851615611e255780820291505b8081029050611e3385611de3565b9450611dfa565b94509492505050565b600082611e535760019050611f0f565b81611e615760009050611f0f565b8160018114611e775760028114611e8157611eb0565b6001915050611f0f565b60ff841115611e9357611e92611db4565b5b8360020a915084821115611eaa57611ea9611db4565b5b50611f0f565b5060208310610133831016604e8410600b8410161715611ee55782820a905083811115611ee057611edf611db4565b5b611f0f565b611ef28484846001611df0565b92509050818404811115611f0957611f08611db4565b5b81810290505b9392505050565b600060ff82169050919050565b6000611f2e826117d9565b9150611f3983611f16565b9250611f667fffffffffffffffffffffffffffffffffffffffffffffffffffffffffffffffff8484611e43565b905092915050565b6000611f79826117d9565b9150611f84836117d9565b9250828201905080821115611f9c57611f9b611db4565b5b92915050565b7f4e6f7420456e6f75676820546f6b656e73000000000000000000000000000000600082015250565b6000611fd8601183611856565b9150611fe382611fa2565b602082019050919050565b6000602082019050818103600083015261200781611fcb565b9050919050565b6000612019826117d9565b9150612024836117d9565b925082820390508181111561203c5761203b611db4565b5b92915050565b600061204d826117d9565b91507fffffffffffffffffffffffffffffffffffffffffffffffffffffffffffffffff820361207f5761207e611db4565b5b600182019050919050565b600060408201905061209f600083018561183c565b6120ac602083018461190d565b9392505050565b60006120be826117d9565b91506120c9836117d9565b92508282026120d7816117d9565b915082820484148315176120ee576120ed611db4565b5b5092915050565b7f4e487b7100000000000000000000000000000000000000000000000000000000600052602260045260246000fd5b6000600282049050600182168061213c57607f821691505b60208210810361214f5761214e6120f5565b5b50919050565b7f4f6e6c79206f776e65722063616e2063616c6c20746869732066756e6374696f60008201527f6e00000000000000000000000000000000000000000000000000000000000000602082015250565b60006121b1602183611856565b91506121bc82612155565b604082019050919050565b600060208201905081810360008301526121e0816121a4565b9050919050565b7f4e6f742061204d656d62657220616e7977617900000000000000000000000000600082015250565b600061221d601383611856565b9150612228826121e7565b602082019050919050565b6000602082019050818103600083015261224c81612210565b9050919050565b600061225e826117d9565b91506000820361227157612270611db4565b5b600182039050919050565b7f4d656d6265722052656d6f766564000000000000000000000000000000000000600082015250565b60006122b2600e83611856565b91506122bd8261227c565b602082019050919050565b600060208201905081810360008301526122e1816122a5565b9050919050565b7f4d6573736167652063616e6e6f7420626520656d707479000000000000000000600082015250565b600061231e601783611856565b9150612329826122e8565b602082019050919050565b6000602082019050818103600083015261234d81612311565b9050919050565b60008190508160005260206000209050919050565b60006020601f8301049050919050565b600082821b905092915050565b6000600883026123b67fffffffffffffffffffffffffffffffffffffffffffffffffffffffffffffffff82612379565b6123c08683612379565b95508019841693508086168417925050509392505050565b6000819050919050565b60006123fd6123f86123f3846117d9565b6123d8565b6117d9565b9050919050565b6000819050919050565b612417836123e2565b61242b61242382612404565b848454612386565b825550505050565b600090565b612440612433565b61244b81848461240e565b505050565b5b8181101561246f57612464600082612438565b600181019050612451565b5050565b601f8211156124b45761248581612354565b61248e84612369565b8101602085101561249d578190505b6124b16124a985612369565b830182612450565b50505b505050565b600082821c905092915050565b60006124d7600019846008026124b9565b1980831691505092915050565b60006124f083836124c6565b9150826002028217905092915050565b6125098261184b565b67ffffffffffffffff81111561252257612521611a8c565b5b61252c8254612124565b612537828285612473565b600060209050601f83116001811461256a5760008415612558578287015190505b61256285826124e4565b8655506125ca565b601f19841661257886612354565b60005b828110156125a05784890151825560018201915060208501945060208101905061257b565b868310156125bd57848901516125b9601f8916826124c6565b8355505b6001600288020188555050505b505050505050565b60006060820190506125e7600083018661183c565b81810360208301526125f981856118a2565b9050612608604083018461190d565b949350505050565b7f546f6b656e732068617665206265656e20557064617465640000000000000000600082015250565b6000612646601883611856565b915061265182612610565b602082019050919050565b6000602082019050818103600083015261267581612639565b9050919050565b600081905092915050565b60008190508160005260206000209050919050565b600081546126a981612124565b6126b3818661267c565b945060018216600081146126ce57600181146126e357612716565b60ff1983168652811515820286019350612716565b6126ec85612687565b60005b8381101561270e578154818901526001820191506020810190506126ef565b838801955050505b50505092915050565b600061272b828461269c565b915081905092915050565b7f416c72656164792061204d656d62657200000000000000000000000000000000600082015250565b600061276c601083611856565b915061277782612736565b602082019050919050565b6000602082019050818103600083015261279b8161275f565b9050919050565b7f4d656d6265722041646465640000000000000000000000000000000000000000600082015250565b60006127d8600c83611856565b91506127e3826127a2565b602082019050919050565b60006020820190508181036000830152612807816127cb565b9050919050565b7f4e487b7100000000000000000000000000000000000000000000000000000000600052601260045260246000fd5b6000612848826117d9565b9150612853836117d9565b9250826128635761286261280e565b5b82820490509291505056fea26469706673582212205049fa0c7d026b8198565e00e97d268d0f16f40023ff6b5da4f0aa1ec9c1475364736f6c63430008140033",
  "linkReferences": {},
  "deployedLinkReferences": {}
}