{
  "_format": "hh-sol-artifact-1",
  "contractName": "DAO",
  "sourceName": "contracts/DAO.sol",
  "abi": [
    {
      "inputs": [
        {
          "internalType": "contract Token",
          "name": "_tokenContract",
          "type": "address"
        }
      ],
      "stateMutability": "nonpayable",
      "type": "constructor"
    },
    {
      "anonymous": false,
      "inputs": [
        {
          "indexed": false,
          "internalType": "string",
          "name": "message",
          "type": "string"
        }
      ],
      "name": "JoiningReqEvent",
      "type": "event"
    },
    {
      "anonymous": false,
      "inputs": [
        {
          "indexed": false,
          "internalType": "string",
          "name": "message",
          "type": "string"
        }
      ],
      "name": "MembersUpdated",
      "type": "event"
    },
    {
      "anonymous": false,
      "inputs": [
        {
          "indexed": false,
          "internalType": "uint256",
          "name": "proposalId",
          "type": "uint256"
        },
        {
          "indexed": false,
          "internalType": "string",
          "name": "message",
          "type": "string"
        },
        {
          "indexed": false,
          "internalType": "address",
          "name": "proposer",
          "type": "address"
        }
      ],
      "name": "ProposalCreatedEvent",
      "type": "event"
    },
    {
      "anonymous": false,
      "inputs": [
        {
          "indexed": false,
          "internalType": "uint256",
          "name": "proposalId",
          "type": "uint256"
        }
      ],
      "name": "ProposalPassed",
      "type": "event"
    },
    {
      "anonymous": false,
      "inputs": [
        {
          "indexed": false,
          "internalType": "string",
          "name": "message",
          "type": "string"
        }
      ],
      "name": "TokenUpdated",
      "type": "event"
    },
    {
      "anonymous": false,
      "inputs": [
        {
          "indexed": false,
          "internalType": "uint256",
          "name": "proposalId",
          "type": "uint256"
        },
        {
          "indexed": false,
          "internalType": "address",
          "name": "voter",
          "type": "address"
        }
      ],
      "name": "Voted",
      "type": "event"
    },
    {
      "inputs": [
        {
          "internalType": "uint256",
          "name": "",
          "type": "uint256"
        }
      ],
      "name": "acceptedProporsalsIds",
      "outputs": [
        {
          "internalType": "uint256",
          "name": "",
          "type": "uint256"
        }
      ],
      "stateMutability": "view",
      "type": "function"
    },
    {
      "inputs": [],
      "name": "acceptedProporsalsIdsCount",
      "outputs": [
        {
          "internalType": "uint256",
          "name": "",
          "type": "uint256"
        }
      ],
      "stateMutability": "view",
      "type": "function"
    },
    {
      "inputs": [
        {
          "internalType": "string",
          "name": "_message",
          "type": "string"
        }
      ],
      "name": "addJoinRequest",
      "outputs": [],
      "stateMutability": "nonpayable",
      "type": "function"
    },
    {
      "inputs": [
        {
          "internalType": "address",
          "name": "_member",
          "type": "address"
        }
      ],
      "name": "addMember",
      "outputs": [],
      "stateMutability": "nonpayable",
      "type": "function"
    },
    {
      "inputs": [],
      "name": "joinRequestCount",
      "outputs": [
        {
          "internalType": "uint256",
          "name": "",
          "type": "uint256"
        }
      ],
      "stateMutability": "view",
      "type": "function"
    },
    {
      "inputs": [
        {
          "internalType": "address",
          "name": "",
          "type": "address"
        }
      ],
      "name": "joinRequestString",
      "outputs": [
        {
          "internalType": "string",
          "name": "",
          "type": "string"
        }
      ],
      "stateMutability": "view",
      "type": "function"
    },
    {
      "inputs": [
        {
          "internalType": "uint256",
          "name": "",
          "type": "uint256"
        }
      ],
      "name": "joinRequests",
      "outputs": [
        {
          "internalType": "uint256",
          "name": "id",
          "type": "uint256"
        },
        {
          "internalType": "string",
          "name": "message",
          "type": "string"
        },
        {
          "internalType": "address",
          "name": "candidate",
          "type": "address"
        },
        {
          "internalType": "bool",
          "name": "member",
          "type": "bool"
        },
        {
          "internalType": "uint256",
          "name": "voteCount",
          "type": "uint256"
        }
      ],
      "stateMutability": "view",
      "type": "function"
    },
    {
      "inputs": [
        {
          "internalType": "uint256",
          "name": "joinreqId",
          "type": "uint256"
        }
      ],
      "name": "joinVotePrize",
      "outputs": [
        {
          "internalType": "uint256",
          "name": "",
          "type": "uint256"
        }
      ],
      "stateMutability": "view",
      "type": "function"
    },
    {
      "inputs": [
        {
          "internalType": "address",
          "name": "",
          "type": "address"
        }
      ],
      "name": "lastIdeaPosted",
      "outputs": [
        {
          "internalType": "uint256",
          "name": "",
          "type": "uint256"
        }
      ],
      "stateMutability": "view",
      "type": "function"
    },
    {
      "inputs": [
        {
          "internalType": "address",
          "name": "",
          "type": "address"
        }
      ],
      "name": "lastRewardDistribTime",
      "outputs": [
        {
          "internalType": "uint256",
          "name": "",
          "type": "uint256"
        }
      ],
      "stateMutability": "view",
      "type": "function"
    },
    {
      "inputs": [],
      "name": "memberCount",
      "outputs": [
        {
          "internalType": "uint256",
          "name": "",
          "type": "uint256"
        }
      ],
      "stateMutability": "view",
      "type": "function"
    },
    {
      "inputs": [
        {
          "internalType": "address",
          "name": "",
          "type": "address"
        }
      ],
      "name": "members",
      "outputs": [
        {
          "internalType": "bool",
          "name": "",
          "type": "bool"
        }
      ],
      "stateMutability": "view",
      "type": "function"
    },
    {
      "inputs": [],
      "name": "owner",
      "outputs": [
        {
          "internalType": "address",
          "name": "",
          "type": "address"
        }
      ],
      "stateMutability": "view",
      "type": "function"
    },
    {
      "inputs": [],
      "name": "proposalCount",
      "outputs": [
        {
          "internalType": "uint256",
          "name": "",
          "type": "uint256"
        }
      ],
      "stateMutability": "view",
      "type": "function"
    },
    {
      "inputs": [
        {
          "internalType": "uint256",
          "name": "",
          "type": "uint256"
        }
      ],
      "name": "proposals",
      "outputs": [
        {
          "internalType": "uint256",
          "name": "id",
          "type": "uint256"
        },
        {
          "internalType": "string",
          "name": "message",
          "type": "string"
        },
        {
          "internalType": "address",
          "name": "proposer",
          "type": "address"
        },
        {
          "internalType": "uint256",
          "name": "voteCount",
          "type": "uint256"
        },
        {
          "internalType": "bool",
          "name": "posted",
          "type": "bool"
        }
      ],
      "stateMutability": "view",
      "type": "function"
    },
    {
      "inputs": [
        {
          "internalType": "string",
          "name": "_message",
          "type": "string"
        }
      ],
      "name": "proposeMessage",
      "outputs": [],
      "stateMutability": "nonpayable",
      "type": "function"
    },
    {
      "inputs": [],
      "name": "provideStayingReward",
      "outputs": [],
      "stateMutability": "nonpayable",
      "type": "function"
    },
    {
      "inputs": [
        {
          "internalType": "address",
          "name": "_member",
          "type": "address"
        }
      ],
      "name": "removeMember",
      "outputs": [],
      "stateMutability": "nonpayable",
      "type": "function"
    },
    {
      "inputs": [
        {
          "internalType": "address",
          "name": "add",
          "type": "address"
        }
      ],
      "name": "returnBalance",
      "outputs": [
        {
          "internalType": "uint256",
          "name": "",
          "type": "uint256"
        }
      ],
      "stateMutability": "view",
      "type": "function"
    },
    {
      "inputs": [],
      "name": "slashingLazyPenality",
      "outputs": [],
      "stateMutability": "nonpayable",
      "type": "function"
    },
    {
      "inputs": [],
      "name": "tokenContract",
      "outputs": [
        {
          "internalType": "contract Token",
          "name": "",
          "type": "address"
        }
      ],
      "stateMutability": "view",
      "type": "function"
    },
    {
      "inputs": [],
      "name": "updateUserBalance",
      "outputs": [],
      "stateMutability": "nonpayable",
      "type": "function"
    },
    {
      "inputs": [
        {
          "internalType": "uint256",
          "name": "_proposalId",
          "type": "uint256"
        }
      ],
      "name": "vote",
      "outputs": [],
      "stateMutability": "nonpayable",
      "type": "function"
    },
    {
      "inputs": [
        {
          "internalType": "uint256",
          "name": "_joinReqId",
          "type": "uint256"
        }
      ],
      "name": "voteJoinRequests",
      "outputs": [],
      "stateMutability": "nonpayable",
      "type": "function"
    },
    {
      "inputs": [
        {
          "internalType": "address",
          "name": "voter",
          "type": "address"
        },
        {
          "internalType": "uint256",
          "name": "proposalId",
          "type": "uint256"
        }
      ],
      "name": "votePrize",
      "outputs": [
        {
          "internalType": "uint256",
          "name": "",
          "type": "uint256"
        }
      ],
      "stateMutability": "view",
      "type": "function"
    }
  ],
  "bytecode": "0x60806040523480156200001157600080fd5b50604051620039743803806200397483398181016040528101906200003791906200023d565b336000806101000a81548173ffffffffffffffffffffffffffffffffffffffff021916908373ffffffffffffffffffffffffffffffffffffffff16021790555080600560006101000a81548173ffffffffffffffffffffffffffffffffffffffff021916908373ffffffffffffffffffffffffffffffffffffffff1602179055506001600960003373ffffffffffffffffffffffffffffffffffffffff1673ffffffffffffffffffffffffffffffffffffffff16815260200190815260200160002060006101000a81548160ff02191690831515021790555042600a60003373ffffffffffffffffffffffffffffffffffffffff1673ffffffffffffffffffffffffffffffffffffffff16815260200190815260200160002081905550600160028190555042600b60003373ffffffffffffffffffffffffffffffffffffffff1673ffffffffffffffffffffffffffffffffffffffff16815260200190815260200160002081905550600060018190555060006004819055506000600381905550506200026f565b600080fd5b600073ffffffffffffffffffffffffffffffffffffffff82169050919050565b6000620001f182620001c4565b9050919050565b60006200020582620001e4565b9050919050565b6200021781620001f8565b81146200022357600080fd5b50565b60008151905062000237816200020c565b92915050565b600060208284031215620002565762000255620001bf565b5b6000620002668482850162000226565b91505092915050565b6136f5806200027f6000396000f3fe608060405234801561001057600080fd5b50600436106101735760003560e01c806368485f49116100de5780638da5cb5b11610097578063ca6d56dc11610071578063ca6d56dc14610462578063da35c6641461047e578063ed885b651461049c578063f9a8286f146104a657610173565b80638da5cb5b146103f6578063a36f377f14610414578063bac230441461043257610173565b806368485f4914610324578063693211af146103545780636e19e6b814610370578063732dd293146103a05780637fc10205146103aa5780638780069a146103c657610173565b8063264b2b8e11610130578063264b2b8e1461024e5780632b0234571461027e578063357e39d31461028857806355a373d6146102a657806363df7700146102c4578063679ba54b146102f457610173565b80630121b93f14610178578063013cf08b1461019457806308ae4b0c146101c85780630b1ca49a146101f857806311aee3801461021457806317a3448914610232575b600080fd5b610192600480360381019061018d91906122bb565b6104da565b005b6101ae60048036038101906101a991906122bb565b610993565b6040516101bf9594939291906123e3565b60405180910390f35b6101e260048036038101906101dd9190612469565b610a8e565b6040516101ef9190612496565b60405180910390f35b610212600480360381019061020d9190612469565b610aae565b005b61021c610c77565b60405161022991906124b1565b60405180910390f35b61024c600480360381019061024791906122bb565b610c7d565b005b61026860048036038101906102639190612469565b6111b0565b60405161027591906124b1565b60405180910390f35b610286611255565b005b610290611385565b60405161029d91906124b1565b60405180910390f35b6102ae61138b565b6040516102bb919061252b565b60405180910390f35b6102de60048036038101906102d99190612469565b6113b1565b6040516102eb9190612546565b60405180910390f35b61030e60048036038101906103099190612568565b611451565b60405161031b91906124b1565b60405180910390f35b61033e60048036038101906103399190612469565b611562565b60405161034b91906124b1565b60405180910390f35b61036e600480360381019061036991906126dd565b61157a565b005b61038a600480360381019061038591906122bb565b611818565b60405161039791906124b1565b60405180910390f35b6103a8611928565b005b6103c460048036038101906103bf91906126dd565b6119fb565b005b6103e060048036038101906103db91906122bb565b611b92565b6040516103ed91906124b1565b60405180910390f35b6103fe611bb6565b60405161040b9190612726565b60405180910390f35b61041c611bda565b60405161042991906124b1565b60405180910390f35b61044c60048036038101906104479190612469565b611be0565b60405161045991906124b1565b60405180910390f35b61047c60048036038101906104779190612469565b611bf8565b005b610486611e95565b60405161049391906124b1565b60405180910390f35b6104a4611e9b565b005b6104c060048036038101906104bb91906122bb565b612176565b6040516104d1959493929190612741565b60405180910390f35b600960003373ffffffffffffffffffffffffffffffffffffffff1673ffffffffffffffffffffffffffffffffffffffff16815260200190815260200160002060009054906101000a900460ff16610566576040517f08c379a000000000000000000000000000000000000000000000000000000000815260040161055d9061280d565b60405180910390fd5b60015481106105aa576040517f08c379a00000000000000000000000000000000000000000000000000000000081526004016105a190612879565b60405180910390fd5b60001515600682815481106105c2576105c1612899565b5b906000526020600020906006020160040160009054906101000a900460ff16151514610623576040517f08c379a000000000000000000000000000000000000000000000000000000000815260040161061a90612914565b60405180910390fd5b60006006828154811061063957610638612899565b5b906000526020600020906006020190506000600160028360050160003373ffffffffffffffffffffffffffffffffffffffff1673ffffffffffffffffffffffffffffffffffffffff1681526020019081526020016000205461069b9190612aa3565b6106a59190612aee565b905080600560009054906101000a900473ffffffffffffffffffffffffffffffffffffffff1673ffffffffffffffffffffffffffffffffffffffff166370a08231336040518263ffffffff1660e01b81526004016107039190612726565b602060405180830381865afa158015610720573d6000803e3d6000fd5b505050506040513d601f19601f820116820180604052508101906107449190612b37565b11610784576040517f08c379a000000000000000000000000000000000000000000000000000000000815260040161077b90612bb0565b60405180910390fd5b600560009054906101000a900473ffffffffffffffffffffffffffffffffffffffff1673ffffffffffffffffffffffffffffffffffffffff16639dc29fac33836040518363ffffffff1660e01b81526004016107e1929190612bd0565b600060405180830381600087803b1580156107fb57600080fd5b505af115801561080f573d6000803e3d6000fd5b505050508160050160003373ffffffffffffffffffffffffffffffffffffffff1673ffffffffffffffffffffffffffffffffffffffff168152602001908152602001600020600081548092919061086590612bf9565b919050555081600301600081548092919061087f90612bf9565b91905055507f030b0f8dcd86a031eddb071f91882edeac8173663ba775713b677b42b51be44b83336040516108b5929190612c41565b60405180910390a1600254600283600301546108d19190612c6a565b111561098e577fe36f8b7448daff4a52e2945db0d1d7a436279cc1d527a45c27835dcbd27f336d8360405161090691906124b1565b60405180910390a160016006848154811061092457610923612899565b5b906000526020600020906006020160040160006101000a81548160ff02191690831515021790555060078390806001815401808255809150506001900390600052602060002001600090919091909150556003600081548092919061098890612bf9565b91905055505b505050565b600681815481106109a357600080fd5b90600052602060002090600602016000915090508060000154908060010180546109cc90612cdb565b80601f01602080910402602001604051908101604052809291908181526020018280546109f890612cdb565b8015610a455780601f10610a1a57610100808354040283529160200191610a45565b820191906000526020600020905b815481529060010190602001808311610a2857829003601f168201915b5050505050908060020160009054906101000a900473ffffffffffffffffffffffffffffffffffffffff16908060030154908060040160009054906101000a900460ff16905085565b60096020528060005260406000206000915054906101000a900460ff1681565b60008054906101000a900473ffffffffffffffffffffffffffffffffffffffff1673ffffffffffffffffffffffffffffffffffffffff163373ffffffffffffffffffffffffffffffffffffffff1614610b3c576040517f08c379a0000000000000000000000000000000000000000000000000000000008152600401610b3390612d7e565b60405180910390fd5b60011515600960008373ffffffffffffffffffffffffffffffffffffffff1673ffffffffffffffffffffffffffffffffffffffff16815260200190815260200160002060009054906101000a900460ff16151514610bcf576040517f08c379a0000000000000000000000000000000000000000000000000000000008152600401610bc690612dea565b60405180910390fd5b60026000815480929190610be290612e0a565b91905055506000600960008373ffffffffffffffffffffffffffffffffffffffff1673ffffffffffffffffffffffffffffffffffffffff16815260200190815260200160002060006101000a81548160ff0219169083151502179055507ff462d2f4611174a37353ac035be9afe8c0ddfeb2c86755fa679d5acbd4ceaa13604051610c6c90612e7f565b60405180910390a150565b60025481565b600960003373ffffffffffffffffffffffffffffffffffffffff1673ffffffffffffffffffffffffffffffffffffffff16815260200190815260200160002060009054906101000a900460ff16610d09576040517f08c379a0000000000000000000000000000000000000000000000000000000008152600401610d009061280d565b60405180910390fd5b6004548110610d4d576040517f08c379a0000000000000000000000000000000000000000000000000000000008152600401610d4490612879565b60405180910390fd5b600015156009600060088481548110610d6957610d68612899565b5b906000526020600020906005020160020160009054906101000a900473ffffffffffffffffffffffffffffffffffffffff1673ffffffffffffffffffffffffffffffffffffffff1673ffffffffffffffffffffffffffffffffffffffff16815260200190815260200160002060009054906101000a900460ff16151514610e25576040517f08c379a0000000000000000000000000000000000000000000000000000000008152600401610e1c90612eeb565b60405180910390fd5b600060088281548110610e3b57610e3a612899565b5b906000526020600020906005020190506000600160028360040160003373ffffffffffffffffffffffffffffffffffffffff1673ffffffffffffffffffffffffffffffffffffffff16815260200190815260200160002054610e9d9190612aa3565b610ea79190612aee565b905080600560009054906101000a900473ffffffffffffffffffffffffffffffffffffffff1673ffffffffffffffffffffffffffffffffffffffff166370a08231336040518263ffffffff1660e01b8152600401610f059190612726565b602060405180830381865afa158015610f22573d6000803e3d6000fd5b505050506040513d601f19601f82011682018060405250810190610f469190612b37565b11610f86576040517f08c379a0000000000000000000000000000000000000000000000000000000008152600401610f7d90612bb0565b60405180910390fd5b600560009054906101000a900473ffffffffffffffffffffffffffffffffffffffff1673ffffffffffffffffffffffffffffffffffffffff16639dc29fac33836040518363ffffffff1660e01b8152600401610fe3929190612bd0565b600060405180830381600087803b158015610ffd57600080fd5b505af1158015611011573d6000803e3d6000fd5b505050508160040160003373ffffffffffffffffffffffffffffffffffffffff1673ffffffffffffffffffffffffffffffffffffffff168152602001908152602001600020600081548092919061106790612bf9565b919050555081600301600081548092919061108190612bf9565b91905055506002546002836003015461109a9190612c6a565b11156111415760018260020160146101000a81548160ff02191690831515021790555061110b600884815481106110d4576110d3612899565b5b906000526020600020906005020160020160009054906101000a900473ffffffffffffffffffffffffffffffffffffffff16611bf8565b7ff462d2f4611174a37353ac035be9afe8c0ddfeb2c86755fa679d5acbd4ceaa1360405161113890612f57565b60405180910390a15b7f40b81275ca23902f4151d4ec77a4cfffdef11343ecf7242750a733bc29d3f29560405161116e90612fc3565b60405180910390a17f6714407191569b7b9edd5db2d624b8e2281272e577950f0e87ca156570ffe9e46040516111a39061302f565b60405180910390a1505050565b6000600560009054906101000a900473ffffffffffffffffffffffffffffffffffffffff1673ffffffffffffffffffffffffffffffffffffffff16635f515226836040518263ffffffff1660e01b815260040161120d9190612726565b602060405180830381865afa15801561122a573d6000803e3d6000fd5b505050506040513d601f19601f8201168201806040525081019061124e9190612b37565b9050919050565b6000603c90504281600b60003373ffffffffffffffffffffffffffffffffffffffff1673ffffffffffffffffffffffffffffffffffffffff168152602001908152602001600020546112a79190612aee565b101561138257600560009054906101000a900473ffffffffffffffffffffffffffffffffffffffff1673ffffffffffffffffffffffffffffffffffffffff166340c10f193360326040518363ffffffff1660e01b815260040161130b92919061308a565b600060405180830381600087803b15801561132557600080fd5b505af1158015611339573d6000803e3d6000fd5b5050505042600b60003373ffffffffffffffffffffffffffffffffffffffff1673ffffffffffffffffffffffffffffffffffffffff168152602001908152602001600020819055505b50565b60035481565b600560009054906101000a900473ffffffffffffffffffffffffffffffffffffffff1681565b600c60205280600052604060002060009150905080546113d090612cdb565b80601f01602080910402602001604051908101604052809291908181526020018280546113fc90612cdb565b80156114495780601f1061141e57610100808354040283529160200191611449565b820191906000526020600020905b81548152906001019060200180831161142c57829003601f168201915b505050505081565b6000600960003373ffffffffffffffffffffffffffffffffffffffff1673ffffffffffffffffffffffffffffffffffffffff16815260200190815260200160002060009054906101000a900460ff166114df576040517f08c379a00000000000000000000000000000000000000000000000000000000081526004016114d69061280d565b60405180910390fd5b60016002600684815481106114f7576114f6612899565b5b906000526020600020906006020160050160008673ffffffffffffffffffffffffffffffffffffffff1673ffffffffffffffffffffffffffffffffffffffff168152602001908152602001600020546115509190612aa3565b61155a9190612aee565b905092915050565b600b6020528060005260406000206000915090505481565b600960003373ffffffffffffffffffffffffffffffffffffffff1673ffffffffffffffffffffffffffffffffffffffff16815260200190815260200160002060009054906101000a900460ff16611606576040517f08c379a00000000000000000000000000000000000000000000000000000000081526004016115fd9061280d565b60405180910390fd5b600081511161164a576040517f08c379a0000000000000000000000000000000000000000000000000000000008152600401611641906130ff565b60405180910390fd5b60006001600081548092919061165f90612bf9565b919050559050600060066001816001815401808255809150500390600052602060002090600602019050818160000181905550828160010190816116a391906132c1565b5060008160040160006101000a81548160ff021916908315150217905550338160020160006101000a81548173ffffffffffffffffffffffffffffffffffffffff021916908373ffffffffffffffffffffffffffffffffffffffff16021790555042600a60003373ffffffffffffffffffffffffffffffffffffffff1673ffffffffffffffffffffffffffffffffffffffff16815260200190815260200160002081905550600560009054906101000a900473ffffffffffffffffffffffffffffffffffffffff1673ffffffffffffffffffffffffffffffffffffffff166340c10f193360056040518363ffffffff1660e01b81526004016117a69291906133ce565b600060405180830381600087803b1580156117c057600080fd5b505af11580156117d4573d6000803e3d6000fd5b505050507ff1be93d13a9ec6e38c62e3272909f4ed2b4c69ed86229125edad43fea6d1b5f182843360405161180b939291906133f7565b60405180910390a1505050565b6000600960003373ffffffffffffffffffffffffffffffffffffffff1673ffffffffffffffffffffffffffffffffffffffff16815260200190815260200160002060009054906101000a900460ff166118a6576040517f08c379a000000000000000000000000000000000000000000000000000000000815260040161189d9061280d565b60405180910390fd5b60016002600884815481106118be576118bd612899565b5b906000526020600020906005020160040160003373ffffffffffffffffffffffffffffffffffffffff1673ffffffffffffffffffffffffffffffffffffffff168152602001908152602001600020546119179190612aa3565b6119219190612aee565b9050919050565b600960003373ffffffffffffffffffffffffffffffffffffffff1673ffffffffffffffffffffffffffffffffffffffff16815260200190815260200160002060009054906101000a900460ff166119b4576040517f08c379a00000000000000000000000000000000000000000000000000000000081526004016119ab9061280d565b60405180910390fd5b6119bc611255565b6119c4611e9b565b7f6714407191569b7b9edd5db2d624b8e2281272e577950f0e87ca156570ffe9e46040516119f190613481565b60405180910390a1565b6040518060200160405280600081525080519060200120600c60003373ffffffffffffffffffffffffffffffffffffffff1673ffffffffffffffffffffffffffffffffffffffff168152602001908152602001600020604051611a5e9190613544565b604051809103902003611b5857600060046000815480929190611a8090612bf9565b91905055905060006008600181600181540180825580915050039060005260206000209060050201905081816000018190555082816001019081611ac491906132c1565b50338160020160006101000a81548173ffffffffffffffffffffffffffffffffffffffff021916908373ffffffffffffffffffffffffffffffffffffffff16021790555082600c60003373ffffffffffffffffffffffffffffffffffffffff1673ffffffffffffffffffffffffffffffffffffffff1681526020019081526020016000209081611b5491906132c1565b5050505b7f40b81275ca23902f4151d4ec77a4cfffdef11343ecf7242750a733bc29d3f29581604051611b879190612546565b60405180910390a150565b60078181548110611ba257600080fd5b906000526020600020016000915090505481565b60008054906101000a900473ffffffffffffffffffffffffffffffffffffffff1681565b60045481565b600a6020528060005260406000206000915090505481565b60008054906101000a900473ffffffffffffffffffffffffffffffffffffffff1673ffffffffffffffffffffffffffffffffffffffff163373ffffffffffffffffffffffffffffffffffffffff1614611c86576040517f08c379a0000000000000000000000000000000000000000000000000000000008152600401611c7d90612d7e565b60405180910390fd5b60001515600960008373ffffffffffffffffffffffffffffffffffffffff1673ffffffffffffffffffffffffffffffffffffffff16815260200190815260200160002060009054906101000a900460ff16151514611d19576040517f08c379a0000000000000000000000000000000000000000000000000000000008152600401611d1090612eeb565b60405180910390fd5b60026000815480929190611d2c90612bf9565b91905055506001600960008373ffffffffffffffffffffffffffffffffffffffff1673ffffffffffffffffffffffffffffffffffffffff16815260200190815260200160002060006101000a81548160ff021916908315150217905550600560009054906101000a900473ffffffffffffffffffffffffffffffffffffffff1673ffffffffffffffffffffffffffffffffffffffff166340c10f198260646040518363ffffffff1660e01b8152600401611de7929190613596565b600060405180830381600087803b158015611e0157600080fd5b505af1158015611e15573d6000803e3d6000fd5b5050505042600a60008373ffffffffffffffffffffffffffffffffffffffff1673ffffffffffffffffffffffffffffffffffffffff168152602001908152602001600020819055507ff462d2f4611174a37353ac035be9afe8c0ddfeb2c86755fa679d5acbd4ceaa13604051611e8a9061360b565b60405180910390a150565b60015481565b6000607890506000603c90504282600a60003373ffffffffffffffffffffffffffffffffffffffff1673ffffffffffffffffffffffffffffffffffffffff16815260200190815260200160002054611ef39190612aee565b101561217257600081600a60003373ffffffffffffffffffffffffffffffffffffffff1673ffffffffffffffffffffffffffffffffffffffff1681526020019081526020016000205442611f47919061362b565b600a611f539190612c6a565b611f5d919061368e565b90506000600560009054906101000a900473ffffffffffffffffffffffffffffffffffffffff1673ffffffffffffffffffffffffffffffffffffffff166370a08231336040518263ffffffff1660e01b8152600401611fbc9190612726565b602060405180830381865afa158015611fd9573d6000803e3d6000fd5b505050506040513d601f19601f82011682018060405250810190611ffd9190612b37565b90508181111561209b57600560009054906101000a900473ffffffffffffffffffffffffffffffffffffffff1673ffffffffffffffffffffffffffffffffffffffff16639dc29fac33846040518363ffffffff1660e01b8152600401612064929190612bd0565b600060405180830381600087803b15801561207e57600080fd5b505af1158015612092573d6000803e3d6000fd5b5050505061212b565b600560009054906101000a900473ffffffffffffffffffffffffffffffffffffffff1673ffffffffffffffffffffffffffffffffffffffff16639dc29fac33836040518363ffffffff1660e01b81526004016120f8929190612bd0565b600060405180830381600087803b15801561211257600080fd5b505af1158015612126573d6000803e3d6000fd5b505050505b42600a60003373ffffffffffffffffffffffffffffffffffffffff1673ffffffffffffffffffffffffffffffffffffffff1681526020019081526020016000208190555050505b5050565b6008818154811061218657600080fd5b90600052602060002090600502016000915090508060000154908060010180546121af90612cdb565b80601f01602080910402602001604051908101604052809291908181526020018280546121db90612cdb565b80156122285780601f106121fd57610100808354040283529160200191612228565b820191906000526020600020905b81548152906001019060200180831161220b57829003601f168201915b5050505050908060020160009054906101000a900473ffffffffffffffffffffffffffffffffffffffff16908060020160149054906101000a900460ff16908060030154905085565b6000604051905090565b600080fd5b600080fd5b6000819050919050565b61229881612285565b81146122a357600080fd5b50565b6000813590506122b58161228f565b92915050565b6000602082840312156122d1576122d061227b565b5b60006122df848285016122a6565b91505092915050565b6122f181612285565b82525050565b600081519050919050565b600082825260208201905092915050565b60005b83811015612331578082015181840152602081019050612316565b60008484015250505050565b6000601f19601f8301169050919050565b6000612359826122f7565b6123638185612302565b9350612373818560208601612313565b61237c8161233d565b840191505092915050565b600073ffffffffffffffffffffffffffffffffffffffff82169050919050565b60006123b282612387565b9050919050565b6123c2816123a7565b82525050565b60008115159050919050565b6123dd816123c8565b82525050565b600060a0820190506123f860008301886122e8565b818103602083015261240a818761234e565b905061241960408301866123b9565b61242660608301856122e8565b61243360808301846123d4565b9695505050505050565b612446816123a7565b811461245157600080fd5b50565b6000813590506124638161243d565b92915050565b60006020828403121561247f5761247e61227b565b5b600061248d84828501612454565b91505092915050565b60006020820190506124ab60008301846123d4565b92915050565b60006020820190506124c660008301846122e8565b92915050565b6000819050919050565b60006124f16124ec6124e784612387565b6124cc565b612387565b9050919050565b6000612503826124d6565b9050919050565b6000612515826124f8565b9050919050565b6125258161250a565b82525050565b6000602082019050612540600083018461251c565b92915050565b60006020820190508181036000830152612560818461234e565b905092915050565b6000806040838503121561257f5761257e61227b565b5b600061258d85828601612454565b925050602061259e858286016122a6565b9150509250929050565b600080fd5b600080fd5b7f4e487b7100000000000000000000000000000000000000000000000000000000600052604160045260246000fd5b6125ea8261233d565b810181811067ffffffffffffffff82111715612609576126086125b2565b5b80604052505050565b600061261c612271565b905061262882826125e1565b919050565b600067ffffffffffffffff821115612648576126476125b2565b5b6126518261233d565b9050602081019050919050565b82818337600083830152505050565b600061268061267b8461262d565b612612565b90508281526020810184848401111561269c5761269b6125ad565b5b6126a784828561265e565b509392505050565b600082601f8301126126c4576126c36125a8565b5b81356126d484826020860161266d565b91505092915050565b6000602082840312156126f3576126f261227b565b5b600082013567ffffffffffffffff81111561271157612710612280565b5b61271d848285016126af565b91505092915050565b600060208201905061273b60008301846123b9565b92915050565b600060a08201905061275660008301886122e8565b8181036020830152612768818761234e565b905061277760408301866123b9565b61278460608301856123d4565b61279160808301846122e8565b9695505050505050565b7f4f6e6c79206d656d626572732063616e2063616c6c20746869732066756e637460008201527f696f6e0000000000000000000000000000000000000000000000000000000000602082015250565b60006127f7602383612302565b91506128028261279b565b604082019050919050565b60006020820190508181036000830152612826816127ea565b9050919050565b7f496e76616c69642070726f706f73616c20494400000000000000000000000000600082015250565b6000612863601383612302565b915061286e8261282d565b602082019050919050565b6000602082019050818103600083015261289281612856565b9050919050565b7f4e487b7100000000000000000000000000000000000000000000000000000000600052603260045260246000fd5b7f50726f706f7273616c20616c726561647920706f737465640000000000000000600082015250565b60006128fe601883612302565b9150612909826128c8565b602082019050919050565b6000602082019050818103600083015261292d816128f1565b9050919050565b7f4e487b7100000000000000000000000000000000000000000000000000000000600052601160045260246000fd5b60008160011c9050919050565b6000808291508390505b60018511156129ba5780860481111561299657612995612934565b5b60018516156129a55780820291505b80810290506129b385612963565b945061297a565b94509492505050565b6000826129d35760019050612a8f565b816129e15760009050612a8f565b81600181146129f75760028114612a0157612a30565b6001915050612a8f565b60ff841115612a1357612a12612934565b5b8360020a915084821115612a2a57612a29612934565b5b50612a8f565b5060208310610133831016604e8410600b8410161715612a655782820a905083811115612a6057612a5f612934565b5b612a8f565b612a728484846001612970565b92509050818404811115612a8957612a88612934565b5b81810290505b9392505050565b600060ff82169050919050565b6000612aae82612285565b9150612ab983612a96565b9250612ae67fffffffffffffffffffffffffffffffffffffffffffffffffffffffffffffffff84846129c3565b905092915050565b6000612af982612285565b9150612b0483612285565b9250828201905080821115612b1c57612b1b612934565b5b92915050565b600081519050612b318161228f565b92915050565b600060208284031215612b4d57612b4c61227b565b5b6000612b5b84828501612b22565b91505092915050565b7f4e6f7420456e6f75676820546f6b656e73000000000000000000000000000000600082015250565b6000612b9a601183612302565b9150612ba582612b64565b602082019050919050565b60006020820190508181036000830152612bc981612b8d565b9050919050565b6000604082019050612be560008301856123b9565b612bf260208301846122e8565b9392505050565b6000612c0482612285565b91507fffffffffffffffffffffffffffffffffffffffffffffffffffffffffffffffff8203612c3657612c35612934565b5b600182019050919050565b6000604082019050612c5660008301856122e8565b612c6360208301846123b9565b9392505050565b6000612c7582612285565b9150612c8083612285565b9250828202612c8e81612285565b91508282048414831517612ca557612ca4612934565b5b5092915050565b7f4e487b7100000000000000000000000000000000000000000000000000000000600052602260045260246000fd5b60006002820490506001821680612cf357607f821691505b602082108103612d0657612d05612cac565b5b50919050565b7f4f6e6c79206f776e65722063616e2063616c6c20746869732066756e6374696f60008201527f6e00000000000000000000000000000000000000000000000000000000000000602082015250565b6000612d68602183612302565b9150612d7382612d0c565b604082019050919050565b60006020820190508181036000830152612d9781612d5b565b9050919050565b7f4e6f742061204d656d62657220616e7977617900000000000000000000000000600082015250565b6000612dd4601383612302565b9150612ddf82612d9e565b602082019050919050565b60006020820190508181036000830152612e0381612dc7565b9050919050565b6000612e1582612285565b915060008203612e2857612e27612934565b5b600182039050919050565b7f4d656d6265722052656d6f766564000000000000000000000000000000000000600082015250565b6000612e69600e83612302565b9150612e7482612e33565b602082019050919050565b60006020820190508181036000830152612e9881612e5c565b9050919050565b7f416c72656164792061204d656d62657200000000000000000000000000000000600082015250565b6000612ed5601083612302565b9150612ee082612e9f565b602082019050919050565b60006020820190508181036000830152612f0481612ec8565b9050919050565b7f41206e6577204d656d6265722069732041646465640000000000000000000000600082015250565b6000612f41601583612302565b9150612f4c82612f0b565b602082019050919050565b60006020820190508181036000830152612f7081612f34565b9050919050565b7f4a6f696e74207265717565737420566f74656400000000000000000000000000600082015250565b6000612fad601383612302565b9150612fb882612f77565b602082019050919050565b60006020820190508181036000830152612fdc81612fa0565b9050919050565b7f536f6d6520746f6b656e7320617265206275726e656400000000000000000000600082015250565b6000613019601683612302565b915061302482612fe3565b602082019050919050565b600060208201905081810360008301526130488161300c565b9050919050565b6000819050919050565b600061307461306f61306a8461304f565b6124cc565b612285565b9050919050565b61308481613059565b82525050565b600060408201905061309f60008301856123b9565b6130ac602083018461307b565b9392505050565b7f4d6573736167652063616e6e6f7420626520656d707479000000000000000000600082015250565b60006130e9601783612302565b91506130f4826130b3565b602082019050919050565b60006020820190508181036000830152613118816130dc565b9050919050565b60008190508160005260206000209050919050565b60006020601f8301049050919050565b600082821b905092915050565b6000600883026131817fffffffffffffffffffffffffffffffffffffffffffffffffffffffffffffffff82613144565b61318b8683613144565b95508019841693508086168417925050509392505050565b60006131be6131b96131b484612285565b6124cc565b612285565b9050919050565b6000819050919050565b6131d8836131a3565b6131ec6131e4826131c5565b848454613151565b825550505050565b600090565b6132016131f4565b61320c8184846131cf565b505050565b5b81811015613230576132256000826131f9565b600181019050613212565b5050565b601f821115613275576132468161311f565b61324f84613134565b8101602085101561325e578190505b61327261326a85613134565b830182613211565b50505b505050565b600082821c905092915050565b60006132986000198460080261327a565b1980831691505092915050565b60006132b18383613287565b9150826002028217905092915050565b6132ca826122f7565b67ffffffffffffffff8111156132e3576132e26125b2565b5b6132ed8254612cdb565b6132f8828285613234565b600060209050601f83116001811461332b5760008415613319578287015190505b61332385826132a5565b86555061338b565b601f1984166133398661311f565b60005b828110156133615784890151825560018201915060208501945060208101905061333c565b8683101561337e578489015161337a601f891682613287565b8355505b6001600288020188555050505b505050505050565b6000819050919050565b60006133b86133b36133ae84613393565b6124cc565b612285565b9050919050565b6133c88161339d565b82525050565b60006040820190506133e360008301856123b9565b6133f060208301846133bf565b9392505050565b600060608201905061340c60008301866122e8565b818103602083015261341e818561234e565b905061342d60408301846123b9565b949350505050565b7f546f6b656e732068617665206265656e20557064617465640000000000000000600082015250565b600061346b601883612302565b915061347682613435565b602082019050919050565b6000602082019050818103600083015261349a8161345e565b9050919050565b600081905092915050565b60008190508160005260206000209050919050565b600081546134ce81612cdb565b6134d881866134a1565b945060018216600081146134f357600181146135085761353b565b60ff198316865281151582028601935061353b565b613511856134ac565b60005b8381101561353357815481890152600182019150602081019050613514565b838801955050505b50505092915050565b600061355082846134c1565b915081905092915050565b6000819050919050565b600061358061357b6135768461355b565b6124cc565b612285565b9050919050565b61359081613565565b82525050565b60006040820190506135ab60008301856123b9565b6135b86020830184613587565b9392505050565b7f4d656d6265722041646465640000000000000000000000000000000000000000600082015250565b60006135f5600c83612302565b9150613600826135bf565b602082019050919050565b60006020820190508181036000830152613624816135e8565b9050919050565b600061363682612285565b915061364183612285565b925082820390508181111561365957613658612934565b5b92915050565b7f4e487b7100000000000000000000000000000000000000000000000000000000600052601260045260246000fd5b600061369982612285565b91506136a483612285565b9250826136b4576136b361365f565b5b82820490509291505056fea264697066735822122092e6e64d4c1e7e9c3f7d4e74cb00ce8b719e55c7f184a6e5212128d8b8e404f164736f6c63430008140033",
  "linkReferences": {},
  "deployedLinkReferences": {}
}