{
  "_format": "hh-sol-artifact-1",
  "contractName": "DAO",
  "sourceName": "contracts/DAO.sol",
  "abi": [
    {
      "inputs": [
        {
          "internalType": "contract Token",
          "name": "_tokenContract",
          "type": "address"
        }
      ],
      "stateMutability": "nonpayable",
      "type": "constructor"
    },
    {
      "anonymous": false,
      "inputs": [
        {
          "indexed": false,
          "internalType": "string",
          "name": "message",
          "type": "string"
        }
      ],
      "name": "JoiningReqEvent",
      "type": "event"
    },
    {
      "anonymous": false,
      "inputs": [
        {
          "indexed": false,
          "internalType": "string",
          "name": "message",
          "type": "string"
        }
      ],
      "name": "MembersUpdated",
      "type": "event"
    },
    {
      "anonymous": false,
      "inputs": [
        {
          "indexed": false,
          "internalType": "uint256",
          "name": "proposalId",
          "type": "uint256"
        },
        {
          "indexed": false,
          "internalType": "string",
          "name": "message",
          "type": "string"
        },
        {
          "indexed": false,
          "internalType": "address",
          "name": "proposer",
          "type": "address"
        }
      ],
      "name": "ProposalCreatedEvent",
      "type": "event"
    },
    {
      "anonymous": false,
      "inputs": [
        {
          "indexed": false,
          "internalType": "uint256",
          "name": "proposalId",
          "type": "uint256"
        }
      ],
      "name": "ProposalPassed",
      "type": "event"
    },
    {
      "anonymous": false,
      "inputs": [
        {
          "indexed": false,
          "internalType": "string",
          "name": "message",
          "type": "string"
        }
      ],
      "name": "TokenUpdated",
      "type": "event"
    },
    {
      "anonymous": false,
      "inputs": [
        {
          "indexed": false,
          "internalType": "uint256",
          "name": "proposalId",
          "type": "uint256"
        },
        {
          "indexed": false,
          "internalType": "address",
          "name": "voter",
          "type": "address"
        }
      ],
      "name": "Voted",
      "type": "event"
    },
    {
      "inputs": [
        {
          "internalType": "uint256",
          "name": "",
          "type": "uint256"
        }
      ],
      "name": "acceptedProporsalsIds",
      "outputs": [
        {
          "internalType": "uint256",
          "name": "",
          "type": "uint256"
        }
      ],
      "stateMutability": "view",
      "type": "function"
    },
    {
      "inputs": [],
      "name": "acceptedProporsalsIdsCount",
      "outputs": [
        {
          "internalType": "uint256",
          "name": "",
          "type": "uint256"
        }
      ],
      "stateMutability": "view",
      "type": "function"
    },
    {
      "inputs": [
        {
          "internalType": "string",
          "name": "_message",
          "type": "string"
        }
      ],
      "name": "addJoinRequest",
      "outputs": [],
      "stateMutability": "nonpayable",
      "type": "function"
    },
    {
      "inputs": [
        {
          "internalType": "address",
          "name": "_member",
          "type": "address"
        }
      ],
      "name": "addMember",
      "outputs": [],
      "stateMutability": "nonpayable",
      "type": "function"
    },
    {
      "inputs": [],
      "name": "joinRequestCount",
      "outputs": [
        {
          "internalType": "uint256",
          "name": "",
          "type": "uint256"
        }
      ],
      "stateMutability": "view",
      "type": "function"
    },
    {
      "inputs": [
        {
          "internalType": "address",
          "name": "",
          "type": "address"
        }
      ],
      "name": "joinRequestString",
      "outputs": [
        {
          "internalType": "string",
          "name": "",
          "type": "string"
        }
      ],
      "stateMutability": "view",
      "type": "function"
    },
    {
      "inputs": [
        {
          "internalType": "uint256",
          "name": "",
          "type": "uint256"
        }
      ],
      "name": "joinRequests",
      "outputs": [
        {
          "internalType": "uint256",
          "name": "id",
          "type": "uint256"
        },
        {
          "internalType": "string",
          "name": "message",
          "type": "string"
        },
        {
          "internalType": "address",
          "name": "candidate",
          "type": "address"
        },
        {
          "internalType": "bool",
          "name": "member",
          "type": "bool"
        },
        {
          "internalType": "uint256",
          "name": "voteCount",
          "type": "uint256"
        }
      ],
      "stateMutability": "view",
      "type": "function"
    },
    {
      "inputs": [
        {
          "internalType": "uint256",
          "name": "joinreqId",
          "type": "uint256"
        }
      ],
      "name": "joinVotePrize",
      "outputs": [
        {
          "internalType": "uint256",
          "name": "",
          "type": "uint256"
        }
      ],
      "stateMutability": "view",
      "type": "function"
    },
    {
      "inputs": [
        {
          "internalType": "address",
          "name": "",
          "type": "address"
        }
      ],
      "name": "lastIdeaPosted",
      "outputs": [
        {
          "internalType": "uint256",
          "name": "",
          "type": "uint256"
        }
      ],
      "stateMutability": "view",
      "type": "function"
    },
    {
      "inputs": [
        {
          "internalType": "address",
          "name": "",
          "type": "address"
        }
      ],
      "name": "lastRewardDistribTime",
      "outputs": [
        {
          "internalType": "uint256",
          "name": "",
          "type": "uint256"
        }
      ],
      "stateMutability": "view",
      "type": "function"
    },
    {
      "inputs": [],
      "name": "memberCount",
      "outputs": [
        {
          "internalType": "uint256",
          "name": "",
          "type": "uint256"
        }
      ],
      "stateMutability": "view",
      "type": "function"
    },
    {
      "inputs": [
        {
          "internalType": "address",
          "name": "",
          "type": "address"
        }
      ],
      "name": "members",
      "outputs": [
        {
          "internalType": "bool",
          "name": "",
          "type": "bool"
        }
      ],
      "stateMutability": "view",
      "type": "function"
    },
    {
      "inputs": [],
      "name": "owner",
      "outputs": [
        {
          "internalType": "address",
          "name": "",
          "type": "address"
        }
      ],
      "stateMutability": "view",
      "type": "function"
    },
    {
      "inputs": [],
      "name": "proposalCount",
      "outputs": [
        {
          "internalType": "uint256",
          "name": "",
          "type": "uint256"
        }
      ],
      "stateMutability": "view",
      "type": "function"
    },
    {
      "inputs": [
        {
          "internalType": "uint256",
          "name": "",
          "type": "uint256"
        }
      ],
      "name": "proposals",
      "outputs": [
        {
          "internalType": "uint256",
          "name": "id",
          "type": "uint256"
        },
        {
          "internalType": "string",
          "name": "message",
          "type": "string"
        },
        {
          "internalType": "address",
          "name": "proposer",
          "type": "address"
        },
        {
          "internalType": "uint256",
          "name": "voteCount",
          "type": "uint256"
        },
        {
          "internalType": "bool",
          "name": "posted",
          "type": "bool"
        }
      ],
      "stateMutability": "view",
      "type": "function"
    },
    {
      "inputs": [
        {
          "internalType": "string",
          "name": "_message",
          "type": "string"
        }
      ],
      "name": "proposeMessage",
      "outputs": [],
      "stateMutability": "nonpayable",
      "type": "function"
    },
    {
      "inputs": [],
      "name": "provideStayingReward",
      "outputs": [],
      "stateMutability": "nonpayable",
      "type": "function"
    },
    {
      "inputs": [
        {
          "internalType": "address",
          "name": "_member",
          "type": "address"
        }
      ],
      "name": "removeMember",
      "outputs": [],
      "stateMutability": "nonpayable",
      "type": "function"
    },
    {
      "inputs": [
        {
          "internalType": "address",
          "name": "add",
          "type": "address"
        }
      ],
      "name": "returnBalance",
      "outputs": [
        {
          "internalType": "uint256",
          "name": "",
          "type": "uint256"
        }
      ],
      "stateMutability": "view",
      "type": "function"
    },
    {
      "inputs": [],
      "name": "slashingLazyPenality",
      "outputs": [],
      "stateMutability": "nonpayable",
      "type": "function"
    },
    {
      "inputs": [],
      "name": "tokenContract",
      "outputs": [
        {
          "internalType": "contract Token",
          "name": "",
          "type": "address"
        }
      ],
      "stateMutability": "view",
      "type": "function"
    },
    {
      "inputs": [],
      "name": "updateUserBalance",
      "outputs": [],
      "stateMutability": "nonpayable",
      "type": "function"
    },
    {
      "inputs": [
        {
          "internalType": "uint256",
          "name": "_proposalId",
          "type": "uint256"
        }
      ],
      "name": "vote",
      "outputs": [],
      "stateMutability": "nonpayable",
      "type": "function"
    },
    {
      "inputs": [
        {
          "internalType": "uint256",
          "name": "_joinReqId",
          "type": "uint256"
        }
      ],
      "name": "voteJoinRequests",
      "outputs": [],
      "stateMutability": "nonpayable",
      "type": "function"
    },
    {
      "inputs": [
        {
          "internalType": "uint256",
          "name": "proposalId",
          "type": "uint256"
        }
      ],
      "name": "votePrize",
      "outputs": [
        {
          "internalType": "uint256",
          "name": "",
          "type": "uint256"
        }
      ],
      "stateMutability": "view",
      "type": "function"
    }
  ],
  "bytecode": "0x60806040523480156200001157600080fd5b50604051620039773803806200397783398181016040528101906200003791906200023d565b336000806101000a81548173ffffffffffffffffffffffffffffffffffffffff021916908373ffffffffffffffffffffffffffffffffffffffff16021790555080600560006101000a81548173ffffffffffffffffffffffffffffffffffffffff021916908373ffffffffffffffffffffffffffffffffffffffff1602179055506001600960003373ffffffffffffffffffffffffffffffffffffffff1673ffffffffffffffffffffffffffffffffffffffff16815260200190815260200160002060006101000a81548160ff02191690831515021790555042600a60003373ffffffffffffffffffffffffffffffffffffffff1673ffffffffffffffffffffffffffffffffffffffff16815260200190815260200160002081905550600160028190555042600b60003373ffffffffffffffffffffffffffffffffffffffff1673ffffffffffffffffffffffffffffffffffffffff16815260200190815260200160002081905550600060018190555060006004819055506000600381905550506200026f565b600080fd5b600073ffffffffffffffffffffffffffffffffffffffff82169050919050565b6000620001f182620001c4565b9050919050565b60006200020582620001e4565b9050919050565b6200021781620001f8565b81146200022357600080fd5b50565b60008151905062000237816200020c565b92915050565b600060208284031215620002565762000255620001bf565b5b6000620002668482850162000226565b91505092915050565b6136f8806200027f6000396000f3fe608060405234801561001057600080fd5b50600436106101735760003560e01c8063693211af116100de5780638da5cb5b11610097578063ca6d56dc11610071578063ca6d56dc14610462578063da35c6641461047e578063ed885b651461049c578063f9a8286f146104a657610173565b80638da5cb5b146103f6578063a36f377f14610414578063bac230441461043257610173565b8063693211af146103245780636e19e6b814610340578063732dd293146103705780637fc102051461037a5780638780069a146103965780638a1a7999146103c657610173565b8063264b2b8e11610130578063264b2b8e1461024e5780632b0234571461027e578063357e39d31461028857806355a373d6146102a657806363df7700146102c457806368485f49146102f457610173565b80630121b93f14610178578063013cf08b1461019457806308ae4b0c146101c85780630b1ca49a146101f857806311aee3801461021457806317a3448914610232575b600080fd5b610192600480360381019061018d91906122fe565b6104da565b005b6101ae60048036038101906101a991906122fe565b610993565b6040516101bf959493929190612426565b60405180910390f35b6101e260048036038101906101dd91906124ac565b610a8e565b6040516101ef91906124d9565b60405180910390f35b610212600480360381019061020d91906124ac565b610aae565b005b61021c610c77565b60405161022991906124f4565b60405180910390f35b61024c600480360381019061024791906122fe565b610c7d565b005b610268600480360381019061026391906124ac565b6111ee565b60405161027591906124f4565b60405180910390f35b610286611293565b005b6102906113c5565b60405161029d91906124f4565b60405180910390f35b6102ae6113cb565b6040516102bb919061256e565b60405180910390f35b6102de60048036038101906102d991906124ac565b6113f1565b6040516102eb9190612589565b60405180910390f35b61030e600480360381019061030991906124ac565b611491565b60405161031b91906124f4565b60405180910390f35b61033e600480360381019061033991906126e0565b6114a9565b005b61035a600480360381019061035591906122fe565b611747565b60405161036791906124f4565b60405180910390f35b610378611857565b005b610394600480360381019061038f91906126e0565b61192a565b005b6103b060048036038101906103ab91906122fe565b611ac1565b6040516103bd91906124f4565b60405180910390f35b6103e060048036038101906103db91906122fe565b611ae5565b6040516103ed91906124f4565b60405180910390f35b6103fe611bf5565b60405161040b9190612729565b60405180910390f35b61041c611c19565b60405161042991906124f4565b60405180910390f35b61044c600480360381019061044791906124ac565b611c1f565b60405161045991906124f4565b60405180910390f35b61047c600480360381019061047791906124ac565b611c37565b005b610486611ed4565b60405161049391906124f4565b60405180910390f35b6104a4611eda565b005b6104c060048036038101906104bb91906122fe565b6121b9565b6040516104d1959493929190612744565b60405180910390f35b600960003373ffffffffffffffffffffffffffffffffffffffff1673ffffffffffffffffffffffffffffffffffffffff16815260200190815260200160002060009054906101000a900460ff16610566576040517f08c379a000000000000000000000000000000000000000000000000000000000815260040161055d90612810565b60405180910390fd5b60015481106105aa576040517f08c379a00000000000000000000000000000000000000000000000000000000081526004016105a19061287c565b60405180910390fd5b60001515600682815481106105c2576105c161289c565b5b906000526020600020906006020160040160009054906101000a900460ff16151514610623576040517f08c379a000000000000000000000000000000000000000000000000000000000815260040161061a90612917565b60405180910390fd5b6000600682815481106106395761063861289c565b5b906000526020600020906006020190506000600160028360050160003373ffffffffffffffffffffffffffffffffffffffff1673ffffffffffffffffffffffffffffffffffffffff1681526020019081526020016000205461069b9190612aa6565b6106a59190612af1565b905080600560009054906101000a900473ffffffffffffffffffffffffffffffffffffffff1673ffffffffffffffffffffffffffffffffffffffff166370a08231336040518263ffffffff1660e01b81526004016107039190612729565b602060405180830381865afa158015610720573d6000803e3d6000fd5b505050506040513d601f19601f820116820180604052508101906107449190612b3a565b11610784576040517f08c379a000000000000000000000000000000000000000000000000000000000815260040161077b90612bb3565b60405180910390fd5b600560009054906101000a900473ffffffffffffffffffffffffffffffffffffffff1673ffffffffffffffffffffffffffffffffffffffff16639dc29fac33836040518363ffffffff1660e01b81526004016107e1929190612bd3565b600060405180830381600087803b1580156107fb57600080fd5b505af115801561080f573d6000803e3d6000fd5b505050508160050160003373ffffffffffffffffffffffffffffffffffffffff1673ffffffffffffffffffffffffffffffffffffffff168152602001908152602001600020600081548092919061086590612bfc565b919050555081600301600081548092919061087f90612bfc565b91905055507f030b0f8dcd86a031eddb071f91882edeac8173663ba775713b677b42b51be44b83336040516108b5929190612c44565b60405180910390a1600254600283600301546108d19190612c6d565b111561098e577fe36f8b7448daff4a52e2945db0d1d7a436279cc1d527a45c27835dcbd27f336d8360405161090691906124f4565b60405180910390a16001600684815481106109245761092361289c565b5b906000526020600020906006020160040160006101000a81548160ff02191690831515021790555060078390806001815401808255809150506001900390600052602060002001600090919091909150556003600081548092919061098890612bfc565b91905055505b505050565b600681815481106109a357600080fd5b90600052602060002090600602016000915090508060000154908060010180546109cc90612cde565b80601f01602080910402602001604051908101604052809291908181526020018280546109f890612cde565b8015610a455780601f10610a1a57610100808354040283529160200191610a45565b820191906000526020600020905b815481529060010190602001808311610a2857829003601f168201915b5050505050908060020160009054906101000a900473ffffffffffffffffffffffffffffffffffffffff16908060030154908060040160009054906101000a900460ff16905085565b60096020528060005260406000206000915054906101000a900460ff1681565b60008054906101000a900473ffffffffffffffffffffffffffffffffffffffff1673ffffffffffffffffffffffffffffffffffffffff163373ffffffffffffffffffffffffffffffffffffffff1614610b3c576040517f08c379a0000000000000000000000000000000000000000000000000000000008152600401610b3390612d81565b60405180910390fd5b60011515600960008373ffffffffffffffffffffffffffffffffffffffff1673ffffffffffffffffffffffffffffffffffffffff16815260200190815260200160002060009054906101000a900460ff16151514610bcf576040517f08c379a0000000000000000000000000000000000000000000000000000000008152600401610bc690612ded565b60405180910390fd5b60026000815480929190610be290612e0d565b91905055506000600960008373ffffffffffffffffffffffffffffffffffffffff1673ffffffffffffffffffffffffffffffffffffffff16815260200190815260200160002060006101000a81548160ff0219169083151502179055507ff462d2f4611174a37353ac035be9afe8c0ddfeb2c86755fa679d5acbd4ceaa13604051610c6c90612e82565b60405180910390a150565b60025481565b600960003373ffffffffffffffffffffffffffffffffffffffff1673ffffffffffffffffffffffffffffffffffffffff16815260200190815260200160002060009054906101000a900460ff16610d09576040517f08c379a0000000000000000000000000000000000000000000000000000000008152600401610d0090612810565b60405180910390fd5b6004548110610d4d576040517f08c379a0000000000000000000000000000000000000000000000000000000008152600401610d449061287c565b60405180910390fd5b600115156009600060088481548110610d6957610d6861289c565b5b906000526020600020906005020160020160009054906101000a900473ffffffffffffffffffffffffffffffffffffffff1673ffffffffffffffffffffffffffffffffffffffff1673ffffffffffffffffffffffffffffffffffffffff16815260200190815260200160002060009054906101000a900460ff16151503610e6257600160088281548110610e0057610dff61289c565b5b906000526020600020906005020160020160146101000a81548160ff0219169083151502179055507f40b81275ca23902f4151d4ec77a4cfffdef11343ecf7242750a733bc29d3f295604051610e5590612eee565b60405180910390a16111eb565b600060088281548110610e7857610e7761289c565b5b906000526020600020906005020190506000600160028360040160003373ffffffffffffffffffffffffffffffffffffffff1673ffffffffffffffffffffffffffffffffffffffff16815260200190815260200160002054610eda9190612aa6565b610ee49190612af1565b905080600560009054906101000a900473ffffffffffffffffffffffffffffffffffffffff1673ffffffffffffffffffffffffffffffffffffffff166370a08231336040518263ffffffff1660e01b8152600401610f429190612729565b602060405180830381865afa158015610f5f573d6000803e3d6000fd5b505050506040513d601f19601f82011682018060405250810190610f839190612b3a565b11610fc3576040517f08c379a0000000000000000000000000000000000000000000000000000000008152600401610fba90612bb3565b60405180910390fd5b600560009054906101000a900473ffffffffffffffffffffffffffffffffffffffff1673ffffffffffffffffffffffffffffffffffffffff16639dc29fac33836040518363ffffffff1660e01b8152600401611020929190612bd3565b600060405180830381600087803b15801561103a57600080fd5b505af115801561104e573d6000803e3d6000fd5b505050508160040160003373ffffffffffffffffffffffffffffffffffffffff1673ffffffffffffffffffffffffffffffffffffffff16815260200190815260200160002060008154809291906110a490612bfc565b91905055508160030160008154809291906110be90612bfc565b9190505550600254600283600301546110d79190612c6d565b111561117e5760018260020160146101000a81548160ff021916908315150217905550611148600884815481106111115761111061289c565b5b906000526020600020906005020160020160009054906101000a900473ffffffffffffffffffffffffffffffffffffffff16611c37565b7ff462d2f4611174a37353ac035be9afe8c0ddfeb2c86755fa679d5acbd4ceaa1360405161117590612f5a565b60405180910390a15b7f40b81275ca23902f4151d4ec77a4cfffdef11343ecf7242750a733bc29d3f2956040516111ab90612eee565b60405180910390a17f6714407191569b7b9edd5db2d624b8e2281272e577950f0e87ca156570ffe9e46040516111e090612fc6565b60405180910390a150505b50565b6000600560009054906101000a900473ffffffffffffffffffffffffffffffffffffffff1673ffffffffffffffffffffffffffffffffffffffff16635f515226836040518263ffffffff1660e01b815260040161124b9190612729565b602060405180830381865afa158015611268573d6000803e3d6000fd5b505050506040513d601f19601f8201168201806040525081019061128c9190612b3a565b9050919050565b600062093a8090504281600b60003373ffffffffffffffffffffffffffffffffffffffff1673ffffffffffffffffffffffffffffffffffffffff168152602001908152602001600020546112e79190612af1565b10156113c257600560009054906101000a900473ffffffffffffffffffffffffffffffffffffffff1673ffffffffffffffffffffffffffffffffffffffff166340c10f193360326040518363ffffffff1660e01b815260040161134b929190613021565b600060405180830381600087803b15801561136557600080fd5b505af1158015611379573d6000803e3d6000fd5b5050505042600b60003373ffffffffffffffffffffffffffffffffffffffff1673ffffffffffffffffffffffffffffffffffffffff168152602001908152602001600020819055505b50565b60035481565b600560009054906101000a900473ffffffffffffffffffffffffffffffffffffffff1681565b600c602052806000526040600020600091509050805461141090612cde565b80601f016020809104026020016040519081016040528092919081815260200182805461143c90612cde565b80156114895780601f1061145e57610100808354040283529160200191611489565b820191906000526020600020905b81548152906001019060200180831161146c57829003601f168201915b505050505081565b600b6020528060005260406000206000915090505481565b600960003373ffffffffffffffffffffffffffffffffffffffff1673ffffffffffffffffffffffffffffffffffffffff16815260200190815260200160002060009054906101000a900460ff16611535576040517f08c379a000000000000000000000000000000000000000000000000000000000815260040161152c90612810565b60405180910390fd5b6000815111611579576040517f08c379a000000000000000000000000000000000000000000000000000000000815260040161157090613096565b60405180910390fd5b60006001600081548092919061158e90612bfc565b919050559050600060066001816001815401808255809150500390600052602060002090600602019050818160000181905550828160010190816115d29190613258565b5060008160040160006101000a81548160ff021916908315150217905550338160020160006101000a81548173ffffffffffffffffffffffffffffffffffffffff021916908373ffffffffffffffffffffffffffffffffffffffff16021790555042600a60003373ffffffffffffffffffffffffffffffffffffffff1673ffffffffffffffffffffffffffffffffffffffff16815260200190815260200160002081905550600560009054906101000a900473ffffffffffffffffffffffffffffffffffffffff1673ffffffffffffffffffffffffffffffffffffffff166340c10f193360056040518363ffffffff1660e01b81526004016116d5929190613365565b600060405180830381600087803b1580156116ef57600080fd5b505af1158015611703573d6000803e3d6000fd5b505050507ff1be93d13a9ec6e38c62e3272909f4ed2b4c69ed86229125edad43fea6d1b5f182843360405161173a9392919061338e565b60405180910390a1505050565b6000600960003373ffffffffffffffffffffffffffffffffffffffff1673ffffffffffffffffffffffffffffffffffffffff16815260200190815260200160002060009054906101000a900460ff166117d5576040517f08c379a00000000000000000000000000000000000000000000000000000000081526004016117cc90612810565b60405180910390fd5b60016002600884815481106117ed576117ec61289c565b5b906000526020600020906005020160040160003373ffffffffffffffffffffffffffffffffffffffff1673ffffffffffffffffffffffffffffffffffffffff168152602001908152602001600020546118469190612aa6565b6118509190612af1565b9050919050565b600960003373ffffffffffffffffffffffffffffffffffffffff1673ffffffffffffffffffffffffffffffffffffffff16815260200190815260200160002060009054906101000a900460ff166118e3576040517f08c379a00000000000000000000000000000000000000000000000000000000081526004016118da90612810565b60405180910390fd5b6118eb611293565b6118f3611eda565b7f6714407191569b7b9edd5db2d624b8e2281272e577950f0e87ca156570ffe9e460405161192090613418565b60405180910390a1565b6040518060200160405280600081525080519060200120600c60003373ffffffffffffffffffffffffffffffffffffffff1673ffffffffffffffffffffffffffffffffffffffff16815260200190815260200160002060405161198d91906134db565b604051809103902003611a87576000600460008154809291906119af90612bfc565b919050559050600060086001816001815401808255809150500390600052602060002090600502019050818160000181905550828160010190816119f39190613258565b50338160020160006101000a81548173ffffffffffffffffffffffffffffffffffffffff021916908373ffffffffffffffffffffffffffffffffffffffff16021790555082600c60003373ffffffffffffffffffffffffffffffffffffffff1673ffffffffffffffffffffffffffffffffffffffff1681526020019081526020016000209081611a839190613258565b5050505b7f40b81275ca23902f4151d4ec77a4cfffdef11343ecf7242750a733bc29d3f29581604051611ab69190612589565b60405180910390a150565b60078181548110611ad157600080fd5b906000526020600020016000915090505481565b6000600960003373ffffffffffffffffffffffffffffffffffffffff1673ffffffffffffffffffffffffffffffffffffffff16815260200190815260200160002060009054906101000a900460ff16611b73576040517f08c379a0000000000000000000000000000000000000000000000000000000008152600401611b6a90612810565b60405180910390fd5b6001600260068481548110611b8b57611b8a61289c565b5b906000526020600020906006020160050160003373ffffffffffffffffffffffffffffffffffffffff1673ffffffffffffffffffffffffffffffffffffffff16815260200190815260200160002054611be49190612aa6565b611bee9190612af1565b9050919050565b60008054906101000a900473ffffffffffffffffffffffffffffffffffffffff1681565b60045481565b600a6020528060005260406000206000915090505481565b60008054906101000a900473ffffffffffffffffffffffffffffffffffffffff1673ffffffffffffffffffffffffffffffffffffffff163373ffffffffffffffffffffffffffffffffffffffff1614611cc5576040517f08c379a0000000000000000000000000000000000000000000000000000000008152600401611cbc90612d81565b60405180910390fd5b60001515600960008373ffffffffffffffffffffffffffffffffffffffff1673ffffffffffffffffffffffffffffffffffffffff16815260200190815260200160002060009054906101000a900460ff16151514611d58576040517f08c379a0000000000000000000000000000000000000000000000000000000008152600401611d4f9061353e565b60405180910390fd5b60026000815480929190611d6b90612bfc565b91905055506001600960008373ffffffffffffffffffffffffffffffffffffffff1673ffffffffffffffffffffffffffffffffffffffff16815260200190815260200160002060006101000a81548160ff021916908315150217905550600560009054906101000a900473ffffffffffffffffffffffffffffffffffffffff1673ffffffffffffffffffffffffffffffffffffffff166340c10f198260646040518363ffffffff1660e01b8152600401611e26929190613599565b600060405180830381600087803b158015611e4057600080fd5b505af1158015611e54573d6000803e3d6000fd5b5050505042600a60008373ffffffffffffffffffffffffffffffffffffffff1673ffffffffffffffffffffffffffffffffffffffff168152602001908152602001600020819055507ff462d2f4611174a37353ac035be9afe8c0ddfeb2c86755fa679d5acbd4ceaa13604051611ec99061360e565b60405180910390a150565b60015481565b60006201fa40905060006201518090504282600a60003373ffffffffffffffffffffffffffffffffffffffff1673ffffffffffffffffffffffffffffffffffffffff16815260200190815260200160002054611f369190612af1565b10156121b557600081600a60003373ffffffffffffffffffffffffffffffffffffffff1673ffffffffffffffffffffffffffffffffffffffff1681526020019081526020016000205442611f8a919061362e565b600a611f969190612c6d565b611fa09190613691565b90506000600560009054906101000a900473ffffffffffffffffffffffffffffffffffffffff1673ffffffffffffffffffffffffffffffffffffffff166370a08231336040518263ffffffff1660e01b8152600401611fff9190612729565b602060405180830381865afa15801561201c573d6000803e3d6000fd5b505050506040513d601f19601f820116820180604052508101906120409190612b3a565b9050818111156120de57600560009054906101000a900473ffffffffffffffffffffffffffffffffffffffff1673ffffffffffffffffffffffffffffffffffffffff16639dc29fac33846040518363ffffffff1660e01b81526004016120a7929190612bd3565b600060405180830381600087803b1580156120c157600080fd5b505af11580156120d5573d6000803e3d6000fd5b5050505061216e565b600560009054906101000a900473ffffffffffffffffffffffffffffffffffffffff1673ffffffffffffffffffffffffffffffffffffffff16639dc29fac33836040518363ffffffff1660e01b815260040161213b929190612bd3565b600060405180830381600087803b15801561215557600080fd5b505af1158015612169573d6000803e3d6000fd5b505050505b42600a60003373ffffffffffffffffffffffffffffffffffffffff1673ffffffffffffffffffffffffffffffffffffffff1681526020019081526020016000208190555050505b5050565b600881815481106121c957600080fd5b90600052602060002090600502016000915090508060000154908060010180546121f290612cde565b80601f016020809104026020016040519081016040528092919081815260200182805461221e90612cde565b801561226b5780601f106122405761010080835404028352916020019161226b565b820191906000526020600020905b81548152906001019060200180831161224e57829003601f168201915b5050505050908060020160009054906101000a900473ffffffffffffffffffffffffffffffffffffffff16908060020160149054906101000a900460ff16908060030154905085565b6000604051905090565b600080fd5b600080fd5b6000819050919050565b6122db816122c8565b81146122e657600080fd5b50565b6000813590506122f8816122d2565b92915050565b600060208284031215612314576123136122be565b5b6000612322848285016122e9565b91505092915050565b612334816122c8565b82525050565b600081519050919050565b600082825260208201905092915050565b60005b83811015612374578082015181840152602081019050612359565b60008484015250505050565b6000601f19601f8301169050919050565b600061239c8261233a565b6123a68185612345565b93506123b6818560208601612356565b6123bf81612380565b840191505092915050565b600073ffffffffffffffffffffffffffffffffffffffff82169050919050565b60006123f5826123ca565b9050919050565b612405816123ea565b82525050565b60008115159050919050565b6124208161240b565b82525050565b600060a08201905061243b600083018861232b565b818103602083015261244d8187612391565b905061245c60408301866123fc565b612469606083018561232b565b6124766080830184612417565b9695505050505050565b612489816123ea565b811461249457600080fd5b50565b6000813590506124a681612480565b92915050565b6000602082840312156124c2576124c16122be565b5b60006124d084828501612497565b91505092915050565b60006020820190506124ee6000830184612417565b92915050565b6000602082019050612509600083018461232b565b92915050565b6000819050919050565b600061253461252f61252a846123ca565b61250f565b6123ca565b9050919050565b600061254682612519565b9050919050565b60006125588261253b565b9050919050565b6125688161254d565b82525050565b6000602082019050612583600083018461255f565b92915050565b600060208201905081810360008301526125a38184612391565b905092915050565b600080fd5b600080fd5b7f4e487b7100000000000000000000000000000000000000000000000000000000600052604160045260246000fd5b6125ed82612380565b810181811067ffffffffffffffff8211171561260c5761260b6125b5565b5b80604052505050565b600061261f6122b4565b905061262b82826125e4565b919050565b600067ffffffffffffffff82111561264b5761264a6125b5565b5b61265482612380565b9050602081019050919050565b82818337600083830152505050565b600061268361267e84612630565b612615565b90508281526020810184848401111561269f5761269e6125b0565b5b6126aa848285612661565b509392505050565b600082601f8301126126c7576126c66125ab565b5b81356126d7848260208601612670565b91505092915050565b6000602082840312156126f6576126f56122be565b5b600082013567ffffffffffffffff811115612714576127136122c3565b5b612720848285016126b2565b91505092915050565b600060208201905061273e60008301846123fc565b92915050565b600060a082019050612759600083018861232b565b818103602083015261276b8187612391565b905061277a60408301866123fc565b6127876060830185612417565b612794608083018461232b565b9695505050505050565b7f4f6e6c79206d656d626572732063616e2063616c6c20746869732066756e637460008201527f696f6e0000000000000000000000000000000000000000000000000000000000602082015250565b60006127fa602383612345565b91506128058261279e565b604082019050919050565b60006020820190508181036000830152612829816127ed565b9050919050565b7f496e76616c69642070726f706f73616c20494400000000000000000000000000600082015250565b6000612866601383612345565b915061287182612830565b602082019050919050565b6000602082019050818103600083015261289581612859565b9050919050565b7f4e487b7100000000000000000000000000000000000000000000000000000000600052603260045260246000fd5b7f50726f706f7273616c20616c726561647920706f737465640000000000000000600082015250565b6000612901601883612345565b915061290c826128cb565b602082019050919050565b60006020820190508181036000830152612930816128f4565b9050919050565b7f4e487b7100000000000000000000000000000000000000000000000000000000600052601160045260246000fd5b60008160011c9050919050565b6000808291508390505b60018511156129bd5780860481111561299957612998612937565b5b60018516156129a85780820291505b80810290506129b685612966565b945061297d565b94509492505050565b6000826129d65760019050612a92565b816129e45760009050612a92565b81600181146129fa5760028114612a0457612a33565b6001915050612a92565b60ff841115612a1657612a15612937565b5b8360020a915084821115612a2d57612a2c612937565b5b50612a92565b5060208310610133831016604e8410600b8410161715612a685782820a905083811115612a6357612a62612937565b5b612a92565b612a758484846001612973565b92509050818404811115612a8c57612a8b612937565b5b81810290505b9392505050565b600060ff82169050919050565b6000612ab1826122c8565b9150612abc83612a99565b9250612ae97fffffffffffffffffffffffffffffffffffffffffffffffffffffffffffffffff84846129c6565b905092915050565b6000612afc826122c8565b9150612b07836122c8565b9250828201905080821115612b1f57612b1e612937565b5b92915050565b600081519050612b34816122d2565b92915050565b600060208284031215612b5057612b4f6122be565b5b6000612b5e84828501612b25565b91505092915050565b7f4e6f7420456e6f75676820546f6b656e73000000000000000000000000000000600082015250565b6000612b9d601183612345565b9150612ba882612b67565b602082019050919050565b60006020820190508181036000830152612bcc81612b90565b9050919050565b6000604082019050612be860008301856123fc565b612bf5602083018461232b565b9392505050565b6000612c07826122c8565b91507fffffffffffffffffffffffffffffffffffffffffffffffffffffffffffffffff8203612c3957612c38612937565b5b600182019050919050565b6000604082019050612c59600083018561232b565b612c6660208301846123fc565b9392505050565b6000612c78826122c8565b9150612c83836122c8565b9250828202612c91816122c8565b91508282048414831517612ca857612ca7612937565b5b5092915050565b7f4e487b7100000000000000000000000000000000000000000000000000000000600052602260045260246000fd5b60006002820490506001821680612cf657607f821691505b602082108103612d0957612d08612caf565b5b50919050565b7f4f6e6c79206f776e65722063616e2063616c6c20746869732066756e6374696f60008201527f6e00000000000000000000000000000000000000000000000000000000000000602082015250565b6000612d6b602183612345565b9150612d7682612d0f565b604082019050919050565b60006020820190508181036000830152612d9a81612d5e565b9050919050565b7f4e6f742061204d656d62657220616e7977617900000000000000000000000000600082015250565b6000612dd7601383612345565b9150612de282612da1565b602082019050919050565b60006020820190508181036000830152612e0681612dca565b9050919050565b6000612e18826122c8565b915060008203612e2b57612e2a612937565b5b600182039050919050565b7f4d656d6265722052656d6f766564000000000000000000000000000000000000600082015250565b6000612e6c600e83612345565b9150612e7782612e36565b602082019050919050565b60006020820190508181036000830152612e9b81612e5f565b9050919050565b7f4a6f696e74207265717565737420566f74656400000000000000000000000000600082015250565b6000612ed8601383612345565b9150612ee382612ea2565b602082019050919050565b60006020820190508181036000830152612f0781612ecb565b9050919050565b7f41206e6577204d656d6265722069732041646465640000000000000000000000600082015250565b6000612f44601583612345565b9150612f4f82612f0e565b602082019050919050565b60006020820190508181036000830152612f7381612f37565b9050919050565b7f536f6d6520746f6b656e7320617265206275726e656400000000000000000000600082015250565b6000612fb0601683612345565b9150612fbb82612f7a565b602082019050919050565b60006020820190508181036000830152612fdf81612fa3565b9050919050565b6000819050919050565b600061300b61300661300184612fe6565b61250f565b6122c8565b9050919050565b61301b81612ff0565b82525050565b600060408201905061303660008301856123fc565b6130436020830184613012565b9392505050565b7f4d6573736167652063616e6e6f7420626520656d707479000000000000000000600082015250565b6000613080601783612345565b915061308b8261304a565b602082019050919050565b600060208201905081810360008301526130af81613073565b9050919050565b60008190508160005260206000209050919050565b60006020601f8301049050919050565b600082821b905092915050565b6000600883026131187fffffffffffffffffffffffffffffffffffffffffffffffffffffffffffffffff826130db565b61312286836130db565b95508019841693508086168417925050509392505050565b600061315561315061314b846122c8565b61250f565b6122c8565b9050919050565b6000819050919050565b61316f8361313a565b61318361317b8261315c565b8484546130e8565b825550505050565b600090565b61319861318b565b6131a3818484613166565b505050565b5b818110156131c7576131bc600082613190565b6001810190506131a9565b5050565b601f82111561320c576131dd816130b6565b6131e6846130cb565b810160208510156131f5578190505b613209613201856130cb565b8301826131a8565b50505b505050565b600082821c905092915050565b600061322f60001984600802613211565b1980831691505092915050565b6000613248838361321e565b9150826002028217905092915050565b6132618261233a565b67ffffffffffffffff81111561327a576132796125b5565b5b6132848254612cde565b61328f8282856131cb565b600060209050601f8311600181146132c257600084156132b0578287015190505b6132ba858261323c565b865550613322565b601f1984166132d0866130b6565b60005b828110156132f8578489015182556001820191506020850194506020810190506132d3565b868310156133155784890151613311601f89168261321e565b8355505b6001600288020188555050505b505050505050565b6000819050919050565b600061334f61334a6133458461332a565b61250f565b6122c8565b9050919050565b61335f81613334565b82525050565b600060408201905061337a60008301856123fc565b6133876020830184613356565b9392505050565b60006060820190506133a3600083018661232b565b81810360208301526133b58185612391565b90506133c460408301846123fc565b949350505050565b7f546f6b656e732068617665206265656e20557064617465640000000000000000600082015250565b6000613402601883612345565b915061340d826133cc565b602082019050919050565b60006020820190508181036000830152613431816133f5565b9050919050565b600081905092915050565b60008190508160005260206000209050919050565b6000815461346581612cde565b61346f8186613438565b9450600182166000811461348a576001811461349f576134d2565b60ff19831686528115158202860193506134d2565b6134a885613443565b60005b838110156134ca578154818901526001820191506020810190506134ab565b838801955050505b50505092915050565b60006134e78284613458565b915081905092915050565b7f416c72656164792061204d656d62657200000000000000000000000000000000600082015250565b6000613528601083612345565b9150613533826134f2565b602082019050919050565b600060208201905081810360008301526135578161351b565b9050919050565b6000819050919050565b600061358361357e6135798461355e565b61250f565b6122c8565b9050919050565b61359381613568565b82525050565b60006040820190506135ae60008301856123fc565b6135bb602083018461358a565b9392505050565b7f4d656d6265722041646465640000000000000000000000000000000000000000600082015250565b60006135f8600c83612345565b9150613603826135c2565b602082019050919050565b60006020820190508181036000830152613627816135eb565b9050919050565b6000613639826122c8565b9150613644836122c8565b925082820390508181111561365c5761365b612937565b5b92915050565b7f4e487b7100000000000000000000000000000000000000000000000000000000600052601260045260246000fd5b600061369c826122c8565b91506136a7836122c8565b9250826136b7576136b6613662565b5b82820490509291505056fea264697066735822122012043873511351b424dbac0fa2499103311818ab7ea9b809e6c84d4c8c6694ff64736f6c63430008140033",
  "linkReferences": {},
  "deployedLinkReferences": {}
}