{
  "_format": "hh-sol-artifact-1",
  "contractName": "Token",
  "sourceName": "contracts/Token.sol",
  "abi": [
    {
      "inputs": [],
      "stateMutability": "nonpayable",
      "type": "constructor"
    },
    {
      "inputs": [
        {
          "internalType": "address",
          "name": "spender",
          "type": "address"
        },
        {
          "internalType": "uint256",
          "name": "allowance",
          "type": "uint256"
        },
        {
          "internalType": "uint256",
          "name": "needed",
          "type": "uint256"
        }
      ],
      "name": "ERC20InsufficientAllowance",
      "type": "error"
    },
    {
      "inputs": [
        {
          "internalType": "address",
          "name": "sender",
          "type": "address"
        },
        {
          "internalType": "uint256",
          "name": "balance",
          "type": "uint256"
        },
        {
          "internalType": "uint256",
          "name": "needed",
          "type": "uint256"
        }
      ],
      "name": "ERC20InsufficientBalance",
      "type": "error"
    },
    {
      "inputs": [
        {
          "internalType": "address",
          "name": "approver",
          "type": "address"
        }
      ],
      "name": "ERC20InvalidApprover",
      "type": "error"
    },
    {
      "inputs": [
        {
          "internalType": "address",
          "name": "receiver",
          "type": "address"
        }
      ],
      "name": "ERC20InvalidReceiver",
      "type": "error"
    },
    {
      "inputs": [
        {
          "internalType": "address",
          "name": "sender",
          "type": "address"
        }
      ],
      "name": "ERC20InvalidSender",
      "type": "error"
    },
    {
      "inputs": [
        {
          "internalType": "address",
          "name": "spender",
          "type": "address"
        }
      ],
      "name": "ERC20InvalidSpender",
      "type": "error"
    },
    {
      "anonymous": false,
      "inputs": [
        {
          "indexed": true,
          "internalType": "address",
          "name": "owner",
          "type": "address"
        },
        {
          "indexed": true,
          "internalType": "address",
          "name": "spender",
          "type": "address"
        },
        {
          "indexed": false,
          "internalType": "uint256",
          "name": "value",
          "type": "uint256"
        }
      ],
      "name": "Approval",
      "type": "event"
    },
    {
      "anonymous": false,
      "inputs": [
        {
          "indexed": true,
          "internalType": "address",
          "name": "from",
          "type": "address"
        },
        {
          "indexed": true,
          "internalType": "address",
          "name": "to",
          "type": "address"
        },
        {
          "indexed": false,
          "internalType": "uint256",
          "name": "value",
          "type": "uint256"
        }
      ],
      "name": "Transfer",
      "type": "event"
    },
    {
      "inputs": [
        {
          "internalType": "address",
          "name": "owner",
          "type": "address"
        },
        {
          "internalType": "address",
          "name": "spender",
          "type": "address"
        }
      ],
      "name": "allowance",
      "outputs": [
        {
          "internalType": "uint256",
          "name": "",
          "type": "uint256"
        }
      ],
      "stateMutability": "view",
      "type": "function"
    },
    {
      "inputs": [
        {
          "internalType": "address",
          "name": "spender",
          "type": "address"
        },
        {
          "internalType": "uint256",
          "name": "value",
          "type": "uint256"
        }
      ],
      "name": "approve",
      "outputs": [
        {
          "internalType": "bool",
          "name": "",
          "type": "bool"
        }
      ],
      "stateMutability": "nonpayable",
      "type": "function"
    },
    {
      "inputs": [
        {
          "internalType": "address",
          "name": "account",
          "type": "address"
        }
      ],
      "name": "balanceOf",
      "outputs": [
        {
          "internalType": "uint256",
          "name": "",
          "type": "uint256"
        }
      ],
      "stateMutability": "view",
      "type": "function"
    },
    {
      "inputs": [
        {
          "internalType": "uint256",
          "name": "value",
          "type": "uint256"
        }
      ],
      "name": "burn",
      "outputs": [],
      "stateMutability": "nonpayable",
      "type": "function"
    },
    {
      "inputs": [
        {
          "internalType": "address",
          "name": "sender",
          "type": "address"
        },
        {
          "internalType": "uint256",
          "name": "value",
          "type": "uint256"
        }
      ],
      "name": "burn",
      "outputs": [],
      "stateMutability": "nonpayable",
      "type": "function"
    },
    {
      "inputs": [
        {
          "internalType": "address",
          "name": "account",
          "type": "address"
        },
        {
          "internalType": "uint256",
          "name": "value",
          "type": "uint256"
        }
      ],
      "name": "burnFrom",
      "outputs": [],
      "stateMutability": "nonpayable",
      "type": "function"
    },
    {
      "inputs": [
        {
          "internalType": "address",
          "name": "account",
          "type": "address"
        }
      ],
      "name": "checkBalance",
      "outputs": [
        {
          "internalType": "uint256",
          "name": "",
          "type": "uint256"
        }
      ],
      "stateMutability": "view",
      "type": "function"
    },
    {
      "inputs": [],
      "name": "decimals",
      "outputs": [
        {
          "internalType": "uint8",
          "name": "",
          "type": "uint8"
        }
      ],
      "stateMutability": "view",
      "type": "function"
    },
    {
      "inputs": [
        {
          "internalType": "address",
          "name": "account",
          "type": "address"
        },
        {
          "internalType": "uint256",
          "name": "amount",
          "type": "uint256"
        }
      ],
      "name": "mint",
      "outputs": [],
      "stateMutability": "nonpayable",
      "type": "function"
    },
    {
      "inputs": [],
      "name": "name",
      "outputs": [
        {
          "internalType": "string",
          "name": "",
          "type": "string"
        }
      ],
      "stateMutability": "view",
      "type": "function"
    },
    {
      "inputs": [],
      "name": "symbol",
      "outputs": [
        {
          "internalType": "string",
          "name": "",
          "type": "string"
        }
      ],
      "stateMutability": "view",
      "type": "function"
    },
    {
      "inputs": [],
      "name": "totalSupply",
      "outputs": [
        {
          "internalType": "uint256",
          "name": "",
          "type": "uint256"
        }
      ],
      "stateMutability": "view",
      "type": "function"
    },
    {
      "inputs": [
        {
          "internalType": "address",
          "name": "to",
          "type": "address"
        },
        {
          "internalType": "uint256",
          "name": "value",
          "type": "uint256"
        }
      ],
      "name": "transfer",
      "outputs": [
        {
          "internalType": "bool",
          "name": "",
          "type": "bool"
        }
      ],
      "stateMutability": "nonpayable",
      "type": "function"
    },
    {
      "inputs": [
        {
          "internalType": "address",
          "name": "from",
          "type": "address"
        },
        {
          "internalType": "address",
          "name": "to",
          "type": "address"
        },
        {
          "internalType": "uint256",
          "name": "value",
          "type": "uint256"
        }
      ],
      "name": "transferFrom",
      "outputs": [
        {
          "internalType": "bool",
          "name": "",
          "type": "bool"
        }
      ],
      "stateMutability": "nonpayable",
      "type": "function"
    }
  ],
  "bytecode": "0x60806040523480156200001157600080fd5b506040518060400160405280600281526020017f53540000000000000000000000000000000000000000000000000000000000008152506040518060400160405280600181526020017f530000000000000000000000000000000000000000000000000000000000000081525081600390816200008f9190620005f6565b508060049081620000a19190620005f6565b505050620000b933620f4240620000bf60201b60201c565b62000814565b600073ffffffffffffffffffffffffffffffffffffffff168273ffffffffffffffffffffffffffffffffffffffff1603620001345760006040517fec442f050000000000000000000000000000000000000000000000000000000081526004016200012b919062000722565b60405180910390fd5b62000148600083836200014c60201b60201c565b5050565b600073ffffffffffffffffffffffffffffffffffffffff168373ffffffffffffffffffffffffffffffffffffffff1603620001a25780600260008282546200019591906200076e565b9250508190555062000278565b60008060008573ffffffffffffffffffffffffffffffffffffffff1673ffffffffffffffffffffffffffffffffffffffff1681526020019081526020016000205490508181101562000231578381836040517fe450d38c0000000000000000000000000000000000000000000000000000000081526004016200022893929190620007ba565b60405180910390fd5b8181036000808673ffffffffffffffffffffffffffffffffffffffff1673ffffffffffffffffffffffffffffffffffffffff16815260200190815260200160002081905550505b600073ffffffffffffffffffffffffffffffffffffffff168273ffffffffffffffffffffffffffffffffffffffff1603620002c3578060026000828254039250508190555062000310565b806000808473ffffffffffffffffffffffffffffffffffffffff1673ffffffffffffffffffffffffffffffffffffffff168152602001908152602001600020600082825401925050819055505b8173ffffffffffffffffffffffffffffffffffffffff168373ffffffffffffffffffffffffffffffffffffffff167fddf252ad1be2c89b69c2b068fc378daa952ba7f163c4a11628f55a4df523b3ef836040516200036f9190620007f7565b60405180910390a3505050565b600081519050919050565b7f4e487b7100000000000000000000000000000000000000000000000000000000600052604160045260246000fd5b7f4e487b7100000000000000000000000000000000000000000000000000000000600052602260045260246000fd5b60006002820490506001821680620003fe57607f821691505b602082108103620004145762000413620003b6565b5b50919050565b60008190508160005260206000209050919050565b60006020601f8301049050919050565b600082821b905092915050565b6000600883026200047e7fffffffffffffffffffffffffffffffffffffffffffffffffffffffffffffffff826200043f565b6200048a86836200043f565b95508019841693508086168417925050509392505050565b6000819050919050565b6000819050919050565b6000620004d7620004d1620004cb84620004a2565b620004ac565b620004a2565b9050919050565b6000819050919050565b620004f383620004b6565b6200050b6200050282620004de565b8484546200044c565b825550505050565b600090565b6200052262000513565b6200052f818484620004e8565b505050565b5b8181101562000557576200054b60008262000518565b60018101905062000535565b5050565b601f821115620005a65762000570816200041a565b6200057b846200042f565b810160208510156200058b578190505b620005a36200059a856200042f565b83018262000534565b50505b505050565b600082821c905092915050565b6000620005cb60001984600802620005ab565b1980831691505092915050565b6000620005e68383620005b8565b9150826002028217905092915050565b62000601826200037c565b67ffffffffffffffff8111156200061d576200061c62000387565b5b620006298254620003e5565b620006368282856200055b565b600060209050601f8311600181146200066e576000841562000659578287015190505b620006658582620005d8565b865550620006d5565b601f1984166200067e866200041a565b60005b82811015620006a85784890151825560018201915060208501945060208101905062000681565b86831015620006c85784890151620006c4601f891682620005b8565b8355505b6001600288020188555050505b505050505050565b600073ffffffffffffffffffffffffffffffffffffffff82169050919050565b60006200070a82620006dd565b9050919050565b6200071c81620006fd565b82525050565b600060208201905062000739600083018462000711565b92915050565b7f4e487b7100000000000000000000000000000000000000000000000000000000600052601160045260246000fd5b60006200077b82620004a2565b91506200078883620004a2565b9250828201905080821115620007a357620007a26200073f565b5b92915050565b620007b481620004a2565b82525050565b6000606082019050620007d1600083018662000711565b620007e06020830185620007a9565b620007ef6040830184620007a9565b949350505050565b60006020820190506200080e6000830184620007a9565b92915050565b6110df80620008246000396000f3fe608060405234801561001057600080fd5b50600436106100ea5760003560e01c80635f5152261161008c57806395d89b411161006657806395d89b411461025d5780639dc29fac1461027b578063a9059cbb14610297578063dd62ed3e146102c7576100ea565b80635f515226146101e157806370a082311461021157806379cc679014610241576100ea565b806323b872dd116100c857806323b872dd1461015b578063313ce5671461018b57806340c10f19146101a957806342966c68146101c5576100ea565b806306fdde03146100ef578063095ea7b31461010d57806318160ddd1461013d575b600080fd5b6100f76102f7565b6040516101049190610d06565b60405180910390f35b61012760048036038101906101229190610dc1565b610389565b6040516101349190610e1c565b60405180910390f35b6101456103ac565b6040516101529190610e46565b60405180910390f35b61017560048036038101906101709190610e61565b6103b6565b6040516101829190610e1c565b60405180910390f35b6101936103e5565b6040516101a09190610ed0565b60405180910390f35b6101c360048036038101906101be9190610dc1565b6103ee565b005b6101df60048036038101906101da9190610eeb565b6103fc565b005b6101fb60048036038101906101f69190610f18565b610410565b6040516102089190610e46565b60405180910390f35b61022b60048036038101906102269190610f18565b610422565b6040516102389190610e46565b60405180910390f35b61025b60048036038101906102569190610dc1565b61046a565b005b61026561048a565b6040516102729190610d06565b60405180910390f35b61029560048036038101906102909190610dc1565b61051c565b005b6102b160048036038101906102ac9190610dc1565b61052a565b6040516102be9190610e1c565b60405180910390f35b6102e160048036038101906102dc9190610f45565b61054d565b6040516102ee9190610e46565b60405180910390f35b60606003805461030690610fb4565b80601f016020809104026020016040519081016040528092919081815260200182805461033290610fb4565b801561037f5780601f106103545761010080835404028352916020019161037f565b820191906000526020600020905b81548152906001019060200180831161036257829003601f168201915b5050505050905090565b6000806103946105d4565b90506103a18185856105dc565b600191505092915050565b6000600254905090565b6000806103c16105d4565b90506103ce8582856105ee565b6103d9858585610682565b60019150509392505050565b60006012905090565b6103f88282610776565b5050565b61040d6104076105d4565b826107f8565b50565b600061041b82610422565b9050919050565b60008060008373ffffffffffffffffffffffffffffffffffffffff1673ffffffffffffffffffffffffffffffffffffffff168152602001908152602001600020549050919050565b61047c826104766105d4565b836105ee565b61048682826107f8565b5050565b60606004805461049990610fb4565b80601f01602080910402602001604051908101604052809291908181526020018280546104c590610fb4565b80156105125780601f106104e757610100808354040283529160200191610512565b820191906000526020600020905b8154815290600101906020018083116104f557829003601f168201915b5050505050905090565b61052682826107f8565b5050565b6000806105356105d4565b9050610542818585610682565b600191505092915050565b6000600160008473ffffffffffffffffffffffffffffffffffffffff1673ffffffffffffffffffffffffffffffffffffffff16815260200190815260200160002060008373ffffffffffffffffffffffffffffffffffffffff1673ffffffffffffffffffffffffffffffffffffffff16815260200190815260200160002054905092915050565b600033905090565b6105e9838383600161087a565b505050565b60006105fa848461054d565b90507fffffffffffffffffffffffffffffffffffffffffffffffffffffffffffffffff811461067c578181101561066c578281836040517ffb8f41b200000000000000000000000000000000000000000000000000000000815260040161066393929190610ff4565b60405180910390fd5b61067b8484848403600061087a565b5b50505050565b600073ffffffffffffffffffffffffffffffffffffffff168373ffffffffffffffffffffffffffffffffffffffff16036106f45760006040517f96c6fd1e0000000000000000000000000000000000000000000000000000000081526004016106eb919061102b565b60405180910390fd5b600073ffffffffffffffffffffffffffffffffffffffff168273ffffffffffffffffffffffffffffffffffffffff16036107665760006040517fec442f0500000000000000000000000000000000000000000000000000000000815260040161075d919061102b565b60405180910390fd5b610771838383610a51565b505050565b600073ffffffffffffffffffffffffffffffffffffffff168273ffffffffffffffffffffffffffffffffffffffff16036107e85760006040517fec442f050000000000000000000000000000000000000000000000000000000081526004016107df919061102b565b60405180910390fd5b6107f460008383610a51565b5050565b600073ffffffffffffffffffffffffffffffffffffffff168273ffffffffffffffffffffffffffffffffffffffff160361086a5760006040517f96c6fd1e000000000000000000000000000000000000000000000000000000008152600401610861919061102b565b60405180910390fd5b61087682600083610a51565b5050565b600073ffffffffffffffffffffffffffffffffffffffff168473ffffffffffffffffffffffffffffffffffffffff16036108ec5760006040517fe602df050000000000000000000000000000000000000000000000000000000081526004016108e3919061102b565b60405180910390fd5b600073ffffffffffffffffffffffffffffffffffffffff168373ffffffffffffffffffffffffffffffffffffffff160361095e5760006040517f94280d62000000000000000000000000000000000000000000000000000000008152600401610955919061102b565b60405180910390fd5b81600160008673ffffffffffffffffffffffffffffffffffffffff1673ffffffffffffffffffffffffffffffffffffffff16815260200190815260200160002060008573ffffffffffffffffffffffffffffffffffffffff1673ffffffffffffffffffffffffffffffffffffffff168152602001908152602001600020819055508015610a4b578273ffffffffffffffffffffffffffffffffffffffff168473ffffffffffffffffffffffffffffffffffffffff167f8c5be1e5ebec7d5bd14f71427d1e84f3dd0314c0f7b2291e5b200ac8c7c3b92584604051610a429190610e46565b60405180910390a35b50505050565b600073ffffffffffffffffffffffffffffffffffffffff168373ffffffffffffffffffffffffffffffffffffffff1603610aa3578060026000828254610a979190611075565b92505081905550610b76565b60008060008573ffffffffffffffffffffffffffffffffffffffff1673ffffffffffffffffffffffffffffffffffffffff16815260200190815260200160002054905081811015610b2f578381836040517fe450d38c000000000000000000000000000000000000000000000000000000008152600401610b2693929190610ff4565b60405180910390fd5b8181036000808673ffffffffffffffffffffffffffffffffffffffff1673ffffffffffffffffffffffffffffffffffffffff16815260200190815260200160002081905550505b600073ffffffffffffffffffffffffffffffffffffffff168273ffffffffffffffffffffffffffffffffffffffff1603610bbf5780600260008282540392505081905550610c0c565b806000808473ffffffffffffffffffffffffffffffffffffffff1673ffffffffffffffffffffffffffffffffffffffff168152602001908152602001600020600082825401925050819055505b8173ffffffffffffffffffffffffffffffffffffffff168373ffffffffffffffffffffffffffffffffffffffff167fddf252ad1be2c89b69c2b068fc378daa952ba7f163c4a11628f55a4df523b3ef83604051610c699190610e46565b60405180910390a3505050565b600081519050919050565b600082825260208201905092915050565b60005b83811015610cb0578082015181840152602081019050610c95565b60008484015250505050565b6000601f19601f8301169050919050565b6000610cd882610c76565b610ce28185610c81565b9350610cf2818560208601610c92565b610cfb81610cbc565b840191505092915050565b60006020820190508181036000830152610d208184610ccd565b905092915050565b600080fd5b600073ffffffffffffffffffffffffffffffffffffffff82169050919050565b6000610d5882610d2d565b9050919050565b610d6881610d4d565b8114610d7357600080fd5b50565b600081359050610d8581610d5f565b92915050565b6000819050919050565b610d9e81610d8b565b8114610da957600080fd5b50565b600081359050610dbb81610d95565b92915050565b60008060408385031215610dd857610dd7610d28565b5b6000610de685828601610d76565b9250506020610df785828601610dac565b9150509250929050565b60008115159050919050565b610e1681610e01565b82525050565b6000602082019050610e316000830184610e0d565b92915050565b610e4081610d8b565b82525050565b6000602082019050610e5b6000830184610e37565b92915050565b600080600060608486031215610e7a57610e79610d28565b5b6000610e8886828701610d76565b9350506020610e9986828701610d76565b9250506040610eaa86828701610dac565b9150509250925092565b600060ff82169050919050565b610eca81610eb4565b82525050565b6000602082019050610ee56000830184610ec1565b92915050565b600060208284031215610f0157610f00610d28565b5b6000610f0f84828501610dac565b91505092915050565b600060208284031215610f2e57610f2d610d28565b5b6000610f3c84828501610d76565b91505092915050565b60008060408385031215610f5c57610f5b610d28565b5b6000610f6a85828601610d76565b9250506020610f7b85828601610d76565b9150509250929050565b7f4e487b7100000000000000000000000000000000000000000000000000000000600052602260045260246000fd5b60006002820490506001821680610fcc57607f821691505b602082108103610fdf57610fde610f85565b5b50919050565b610fee81610d4d565b82525050565b60006060820190506110096000830186610fe5565b6110166020830185610e37565b6110236040830184610e37565b949350505050565b60006020820190506110406000830184610fe5565b92915050565b7f4e487b7100000000000000000000000000000000000000000000000000000000600052601160045260246000fd5b600061108082610d8b565b915061108b83610d8b565b92508282019050808211156110a3576110a2611046565b5b9291505056fea2646970667358221220d1d68e0752186b9de51602b2664649795c93a3c53c364e350f065a7f7fa8501d64736f6c63430008140033",
  "linkReferences": {},
  "deployedLinkReferences": {}
}